{
  "address": "0x48A98bC5f9e43ceCC5957cCede2E5C47e1830c42",
  "abi": [
    {
      "inputs": [
        {
          "internalType": "string",
          "name": "name",
          "type": "string"
        },
        {
          "internalType": "string",
          "name": "symbol",
          "type": "string"
        },
        {
          "internalType": "string",
          "name": "_baseUri",
          "type": "string"
        },
        {
          "internalType": "uint8",
          "name": "_totalSupply",
          "type": "uint8"
        },
        {
          "internalType": "address payable",
          "name": "cryptoBadiesWallet",
          "type": "address"
        }
      ],
      "stateMutability": "nonpayable",
      "type": "constructor"
    },
    {
      "anonymous": false,
      "inputs": [
        {
          "indexed": true,
          "internalType": "address",
          "name": "owner",
          "type": "address"
        },
        {
          "indexed": true,
          "internalType": "address",
          "name": "approved",
          "type": "address"
        },
        {
          "indexed": true,
          "internalType": "uint256",
          "name": "tokenId",
          "type": "uint256"
        }
      ],
      "name": "Approval",
      "type": "event"
    },
    {
      "anonymous": false,
      "inputs": [
        {
          "indexed": true,
          "internalType": "address",
          "name": "owner",
          "type": "address"
        },
        {
          "indexed": true,
          "internalType": "address",
          "name": "operator",
          "type": "address"
        },
        {
          "indexed": false,
          "internalType": "bool",
          "name": "approved",
          "type": "bool"
        }
      ],
      "name": "ApprovalForAll",
      "type": "event"
    },
    {
      "anonymous": false,
      "inputs": [
        {
          "indexed": true,
          "internalType": "address",
          "name": "previousOwner",
          "type": "address"
        },
        {
          "indexed": true,
          "internalType": "address",
          "name": "newOwner",
          "type": "address"
        }
      ],
      "name": "OwnershipTransferred",
      "type": "event"
    },
    {
      "anonymous": false,
      "inputs": [
        {
          "indexed": false,
          "internalType": "address",
          "name": "account",
          "type": "address"
        }
      ],
      "name": "Paused",
      "type": "event"
    },
    {
      "anonymous": false,
      "inputs": [
        {
          "indexed": false,
          "internalType": "uint256",
          "name": "price",
          "type": "uint256"
        }
      ],
      "name": "PriceSet",
      "type": "event"
    },
    {
      "anonymous": false,
      "inputs": [
        {
          "indexed": true,
          "internalType": "address",
          "name": "from",
          "type": "address"
        },
        {
          "indexed": true,
          "internalType": "address",
          "name": "to",
          "type": "address"
        },
        {
          "indexed": true,
          "internalType": "uint256",
          "name": "tokenId",
          "type": "uint256"
        }
      ],
      "name": "Transfer",
      "type": "event"
    },
    {
      "anonymous": false,
      "inputs": [
        {
          "indexed": false,
          "internalType": "address",
          "name": "account",
          "type": "address"
        }
      ],
      "name": "Unpaused",
      "type": "event"
    },
    {
      "inputs": [
        {
          "internalType": "address",
          "name": "to",
          "type": "address"
        },
        {
          "internalType": "uint256",
          "name": "tokenId",
          "type": "uint256"
        }
      ],
      "name": "approve",
      "outputs": [],
      "stateMutability": "nonpayable",
      "type": "function"
    },
    {
      "inputs": [
        {
          "internalType": "address",
          "name": "owner",
          "type": "address"
        }
      ],
      "name": "balanceOf",
      "outputs": [
        {
          "internalType": "uint256",
          "name": "",
          "type": "uint256"
        }
      ],
      "stateMutability": "view",
      "type": "function"
    },
    {
      "inputs": [],
      "name": "baseUri",
      "outputs": [
        {
          "internalType": "string",
          "name": "",
          "type": "string"
        }
      ],
      "stateMutability": "view",
      "type": "function"
    },
    {
      "inputs": [
        {
          "internalType": "address",
          "name": "_to",
          "type": "address"
        }
      ],
      "name": "buyNft",
      "outputs": [],
      "stateMutability": "payable",
      "type": "function"
    },
    {
      "inputs": [
        {
          "internalType": "uint256",
          "name": "tokenId",
          "type": "uint256"
        }
      ],
      "name": "getApproved",
      "outputs": [
        {
          "internalType": "address",
          "name": "",
          "type": "address"
        }
      ],
      "stateMutability": "view",
      "type": "function"
    },
    {
      "inputs": [
        {
          "internalType": "address",
          "name": "owner",
          "type": "address"
        },
        {
          "internalType": "address",
          "name": "operator",
          "type": "address"
        }
      ],
      "name": "isApprovedForAll",
      "outputs": [
        {
          "internalType": "bool",
          "name": "",
          "type": "bool"
        }
      ],
      "stateMutability": "view",
      "type": "function"
    },
    {
      "inputs": [],
      "name": "name",
      "outputs": [
        {
          "internalType": "string",
          "name": "",
          "type": "string"
        }
      ],
      "stateMutability": "view",
      "type": "function"
    },
    {
      "inputs": [],
      "name": "nftPrice",
      "outputs": [
        {
          "internalType": "uint256",
          "name": "",
          "type": "uint256"
        }
      ],
      "stateMutability": "view",
      "type": "function"
    },
    {
      "inputs": [],
      "name": "owner",
      "outputs": [
        {
          "internalType": "address",
          "name": "",
          "type": "address"
        }
      ],
      "stateMutability": "view",
      "type": "function"
    },
    {
      "inputs": [
        {
          "internalType": "uint256",
          "name": "tokenId",
          "type": "uint256"
        }
      ],
      "name": "ownerOf",
      "outputs": [
        {
          "internalType": "address",
          "name": "",
          "type": "address"
        }
      ],
      "stateMutability": "view",
      "type": "function"
    },
    {
      "inputs": [],
      "name": "pause",
      "outputs": [],
      "stateMutability": "nonpayable",
      "type": "function"
    },
    {
      "inputs": [],
      "name": "paused",
      "outputs": [
        {
          "internalType": "bool",
          "name": "",
          "type": "bool"
        }
      ],
      "stateMutability": "view",
      "type": "function"
    },
    {
      "inputs": [],
      "name": "renounceOwnership",
      "outputs": [],
      "stateMutability": "nonpayable",
      "type": "function"
    },
    {
      "inputs": [
        {
          "internalType": "address",
          "name": "from",
          "type": "address"
        },
        {
          "internalType": "address",
          "name": "to",
          "type": "address"
        },
        {
          "internalType": "uint256",
          "name": "tokenId",
          "type": "uint256"
        }
      ],
      "name": "safeTransferFrom",
      "outputs": [],
      "stateMutability": "nonpayable",
      "type": "function"
    },
    {
      "inputs": [
        {
          "internalType": "address",
          "name": "from",
          "type": "address"
        },
        {
          "internalType": "address",
          "name": "to",
          "type": "address"
        },
        {
          "internalType": "uint256",
          "name": "tokenId",
          "type": "uint256"
        },
        {
          "internalType": "bytes",
          "name": "data",
          "type": "bytes"
        }
      ],
      "name": "safeTransferFrom",
      "outputs": [],
      "stateMutability": "nonpayable",
      "type": "function"
    },
    {
      "inputs": [
        {
          "internalType": "address",
          "name": "operator",
          "type": "address"
        },
        {
          "internalType": "bool",
          "name": "approved",
          "type": "bool"
        }
      ],
      "name": "setApprovalForAll",
      "outputs": [],
      "stateMutability": "nonpayable",
      "type": "function"
    },
    {
      "inputs": [
        {
          "internalType": "uint256",
          "name": "_price",
          "type": "uint256"
        }
      ],
      "name": "setPrice",
      "outputs": [],
      "stateMutability": "nonpayable",
      "type": "function"
    },
    {
      "inputs": [
        {
          "internalType": "bytes4",
          "name": "interfaceId",
          "type": "bytes4"
        }
      ],
      "name": "supportsInterface",
      "outputs": [
        {
          "internalType": "bool",
          "name": "",
          "type": "bool"
        }
      ],
      "stateMutability": "view",
      "type": "function"
    },
    {
      "inputs": [],
      "name": "symbol",
      "outputs": [
        {
          "internalType": "string",
          "name": "",
          "type": "string"
        }
      ],
      "stateMutability": "view",
      "type": "function"
    },
    {
      "inputs": [
        {
          "internalType": "uint256",
          "name": "tokenId",
          "type": "uint256"
        }
      ],
      "name": "tokenURI",
      "outputs": [
        {
          "internalType": "string",
          "name": "",
          "type": "string"
        }
      ],
      "stateMutability": "view",
      "type": "function"
    },
    {
      "inputs": [],
      "name": "totalSupply",
      "outputs": [
        {
          "internalType": "uint256",
          "name": "",
          "type": "uint256"
        }
      ],
      "stateMutability": "view",
      "type": "function"
    },
    {
      "inputs": [
        {
          "internalType": "address",
          "name": "from",
          "type": "address"
        },
        {
          "internalType": "address",
          "name": "to",
          "type": "address"
        },
        {
          "internalType": "uint256",
          "name": "tokenId",
          "type": "uint256"
        }
      ],
      "name": "transferFrom",
      "outputs": [],
      "stateMutability": "nonpayable",
      "type": "function"
    },
    {
      "inputs": [
        {
          "internalType": "address",
          "name": "newOwner",
          "type": "address"
        }
      ],
      "name": "transferOwnership",
      "outputs": [],
      "stateMutability": "nonpayable",
      "type": "function"
    },
    {
      "inputs": [],
      "name": "unpause",
      "outputs": [],
      "stateMutability": "nonpayable",
      "type": "function"
    }
  ],
  "transactionHash": "0x2acb868e4ecb285d3d0b5dc3356705c3de46263a4a1dec236bd22de5bbf73a52",
  "args": [
    "Kali Program",
    "KP",
    "https://cryptobadies.mypinata.cloud/ipfs/QmVGEpERyVRvYdP5wV7fwQXjsfxm6Wa7ofMJ8fxUD3iSFQ/",
    46,
    "0x20A76e3497baFFa5209784FCB4C4F30EA91D73A1"
  ],
  "numDeployments": 1,
  "solcInputHash": "f07c86909fd872deba517ea82524820d",
  "bytecode": "0x60806040523480156200001157600080fd5b5060405162001e3d38038062001e3d83398101604081905262000034916200027f565b8451859085906200004d90600090602085019062000122565b5080516200006390600190602084019062000122565b50506006805460ff19169055506200007b33620000c8565b600160075560ff821660095582516200009c90600890602086019062000122565b50600b80546001600160a01b0319166001600160a01b039290921691909117905550620003a092505050565b600680546001600160a01b03838116610100818102610100600160a81b031985161790945560405193909204169182907f8be0079c531659141344cd1fd0a4f28419497f9722a3daafe3b4186f6b6457e090600090a35050565b82805462000130906200034d565b90600052602060002090601f0160209004810192826200015457600085556200019f565b82601f106200016f57805160ff19168380011785556200019f565b828001600101855582156200019f579182015b828111156200019f57825182559160200191906001019062000182565b50620001ad929150620001b1565b5090565b5b80821115620001ad5760008155600101620001b2565b600082601f830112620001da57600080fd5b81516001600160401b0380821115620001f757620001f76200038a565b604051601f8301601f19908116603f011681019082821181831017156200022257620002226200038a565b816040528381526020925086838588010111156200023f57600080fd5b600091505b8382101562000263578582018301518183018401529082019062000244565b83821115620002755760008385830101525b9695505050505050565b600080600080600060a086880312156200029857600080fd5b85516001600160401b0380821115620002b057600080fd5b620002be89838a01620001c8565b96506020880151915080821115620002d557600080fd5b620002e389838a01620001c8565b95506040880151915080821115620002fa57600080fd5b506200030988828901620001c8565b935050606086015160ff811681146200032157600080fd5b60808701519092506001600160a01b03811681146200033f57600080fd5b809150509295509295909350565b600181811c908216806200036257607f821691505b602082108114156200038457634e487b7160e01b600052602260045260246000fd5b50919050565b634e487b7160e01b600052604160045260246000fd5b611a8d80620003b06000396000f3fe60806040526004361061014b5760003560e01c806370a08231116100b65780639abc83201161006f5780639abc83201461037d578063a22cb46514610392578063b88d4fde146103b2578063c87b56dd146103d2578063e985e9c5146103f2578063f2fde38b1461043b57600080fd5b806370a08231146102db578063715018a6146102fb5780638456cb59146103105780638da5cb5b1461032557806391b7f5ed1461034857806395d89b411461036857600080fd5b806323b872dd1161010857806323b872dd1461023b5780633f4ba83a1461025b57806342842e0e146102705780634c48d248146102905780635c975abb146102a35780636352211e146102bb57600080fd5b806301ffc9a71461015057806306fdde0314610185578063081812fc146101a7578063095ea7b3146101df5780630d39fc811461020157806318160ddd14610225575b600080fd5b34801561015c57600080fd5b5061017061016b366004611772565b61045b565b60405190151581526020015b60405180910390f35b34801561019157600080fd5b5061019a6104ad565b60405161017c919061185d565b3480156101b357600080fd5b506101c76101c23660046117ac565b61053f565b6040516001600160a01b03909116815260200161017c565b3480156101eb57600080fd5b506101ff6101fa366004611748565b610566565b005b34801561020d57600080fd5b50610217600a5481565b60405190815260200161017c565b34801561023157600080fd5b5061021760095481565b34801561024757600080fd5b506101ff6102563660046115f4565b610681565b34801561026757600080fd5b506101ff6106b2565b34801561027c57600080fd5b506101ff61028b3660046115f4565b6106c4565b6101ff61029e3660046115a6565b6106df565b3480156102af57600080fd5b5060065460ff16610170565b3480156102c757600080fd5b506101c76102d63660046117ac565b6108cc565b3480156102e757600080fd5b506102176102f63660046115a6565b61092c565b34801561030757600080fd5b506101ff6109b2565b34801561031c57600080fd5b506101ff6109c4565b34801561033157600080fd5b5060065461010090046001600160a01b03166101c7565b34801561035457600080fd5b506101ff6103633660046117ac565b6109d4565b34801561037457600080fd5b5061019a610a17565b34801561038957600080fd5b5061019a610a26565b34801561039e57600080fd5b506101ff6103ad36600461170c565b610ab4565b3480156103be57600080fd5b506101ff6103cd366004611630565b610ac3565b3480156103de57600080fd5b5061019a6103ed3660046117ac565b610afb565b3480156103fe57600080fd5b5061017061040d3660046115c1565b6001600160a01b03918216600090815260056020908152604080832093909416825291909152205460ff1690565b34801561044757600080fd5b506101ff6104563660046115a6565b610b62565b60006001600160e01b031982166380ac58cd60e01b148061048c57506001600160e01b03198216635b5e139f60e01b145b806104a757506301ffc9a760e01b6001600160e01b03198316145b92915050565b6060600080546104bc9061197f565b80601f01602080910402602001604051908101604052809291908181526020018280546104e89061197f565b80156105355780601f1061050a57610100808354040283529160200191610535565b820191906000526020600020905b81548152906001019060200180831161051857829003601f168201915b5050505050905090565b600061054a82610bdb565b506000908152600460205260409020546001600160a01b031690565b6000610571826108cc565b9050806001600160a01b0316836001600160a01b031614156105e45760405162461bcd60e51b815260206004820152602160248201527f4552433732313a20617070726f76616c20746f2063757272656e74206f776e656044820152603960f91b60648201526084015b60405180910390fd5b336001600160a01b03821614806106005750610600813361040d565b6106725760405162461bcd60e51b815260206004820152603e60248201527f4552433732313a20617070726f76652063616c6c6572206973206e6f7420746f60448201527f6b656e206f776e6572206e6f7220617070726f76656420666f7220616c6c000060648201526084016105db565b61067c8383610c3a565b505050565b61068b3382610ca8565b6106a75760405162461bcd60e51b81526004016105db906118c2565b61067c838383610d27565b6106ba610ece565b6106c2610f2e565b565b61067c83838360405180602001604052806000815250610ac3565b600260075414156107325760405162461bcd60e51b815260206004820152601f60248201527f5265656e7472616e637947756172643a207265656e7472616e742063616c6c0060448201526064016105db565b6002600755600954600c54111561078b5760405162461bcd60e51b815260206004820181905260248201527f416c6c206e667473206f6620636f6e74726163742077657265206d696e74656460448201526064016105db565b6107943361092c565b156107e15760405162461bcd60e51b815260206004820152601f60248201527f546869732077616c6c657420616c7265616479206f776e7320616e206e66740060448201526064016105db565b600a546108305760405162461bcd60e51b815260206004820152601c60248201527f4120707269636520686173206e6f74206265656e20736574207965740000000060448201526064016105db565b600a5434146108815760405162461bcd60e51b815260206004820181905260248201527f4d73672076616c7565206e6f7420657175616c20746f206e667420707269636560448201526064016105db565b600b546040516001600160a01b03909116903480156108fc02916000818181858888f193505050501580156108ba573d6000803e3d6000fd5b506108c481610f80565b506001600755565b6000818152600260205260408120546001600160a01b0316806104a75760405162461bcd60e51b8152602060048201526018602482015277115490cdcc8c4e881a5b9d985b1a59081d1bdad95b88125160421b60448201526064016105db565b60006001600160a01b0382166109965760405162461bcd60e51b815260206004820152602960248201527f4552433732313a2061646472657373207a65726f206973206e6f7420612076616044820152683634b21037bbb732b960b91b60648201526084016105db565b506001600160a01b031660009081526003602052604090205490565b6109ba610ece565b6106c26000610fa5565b6109cc610ece565b6106c2610fff565b6109dc610ece565b600a8190556040518181527f6bfd5e75539a9d2626425a2e2922675256b219fe546d63dad56011759b9a2f669060200160405180910390a150565b6060600180546104bc9061197f565b60088054610a339061197f565b80601f0160208091040260200160405190810160405280929190818152602001828054610a5f9061197f565b8015610aac5780601f10610a8157610100808354040283529160200191610aac565b820191906000526020600020905b815481529060010190602001808311610a8f57829003601f168201915b505050505081565b610abf33838361103c565b5050565b610acd3383610ca8565b610ae95760405162461bcd60e51b81526004016105db906118c2565b610af58484848461110b565b50505050565b6060610b0682610bdb565b6000610b1061113e565b90506000815111610b305760405180602001604052806000815250610b5b565b80610b3a8461114d565b604051602001610b4b9291906117f1565b6040516020818303038152906040525b9392505050565b610b6a610ece565b6001600160a01b038116610bcf5760405162461bcd60e51b815260206004820152602660248201527f4f776e61626c653a206e6577206f776e657220697320746865207a65726f206160448201526564647265737360d01b60648201526084016105db565b610bd881610fa5565b50565b6000818152600260205260409020546001600160a01b0316610bd85760405162461bcd60e51b8152602060048201526018602482015277115490cdcc8c4e881a5b9d985b1a59081d1bdad95b88125160421b60448201526064016105db565b600081815260046020526040902080546001600160a01b0319166001600160a01b0384169081179091558190610c6f826108cc565b6001600160a01b03167f8c5be1e5ebec7d5bd14f71427d1e84f3dd0314c0f7b2291e5b200ac8c7c3b92560405160405180910390a45050565b600080610cb4836108cc565b9050806001600160a01b0316846001600160a01b03161480610cfb57506001600160a01b0380821660009081526005602090815260408083209388168352929052205460ff165b80610d1f5750836001600160a01b0316610d148461053f565b6001600160a01b0316145b949350505050565b826001600160a01b0316610d3a826108cc565b6001600160a01b031614610d9e5760405162461bcd60e51b815260206004820152602560248201527f4552433732313a207472616e736665722066726f6d20696e636f72726563742060448201526437bbb732b960d91b60648201526084016105db565b6001600160a01b038216610e005760405162461bcd60e51b8152602060048201526024808201527f4552433732313a207472616e7366657220746f20746865207a65726f206164646044820152637265737360e01b60648201526084016105db565b610e0b83838361124b565b610e16600082610c3a565b6001600160a01b0383166000908152600360205260408120805460019290610e3f90849061193c565b90915550506001600160a01b0382166000908152600360205260408120805460019290610e6d908490611910565b909155505060008181526002602052604080822080546001600160a01b0319166001600160a01b0386811691821790925591518493918716917fddf252ad1be2c89b69c2b068fc378daa952ba7f163c4a11628f55a4df523b3ef91a4505050565b6006546001600160a01b036101009091041633146106c25760405162461bcd60e51b815260206004820181905260248201527f4f776e61626c653a2063616c6c6572206973206e6f7420746865206f776e657260448201526064016105db565b610f36611253565b6006805460ff191690557f5db9ee0a495bf2e6ff9c91a7834c1ba4fdd244a5e8aa4e537bd38aeae4b073aa335b6040516001600160a01b03909116815260200160405180910390a1565b6000610f8b600c5490565b9050610f9b600c80546001019055565b610abf828261129c565b600680546001600160a01b03838116610100818102610100600160a81b031985161790945560405193909204169182907f8be0079c531659141344cd1fd0a4f28419497f9722a3daafe3b4186f6b6457e090600090a35050565b6110076112b6565b6006805460ff191660011790557f62e78cea01bee320cd4e420270b5ea74000d11b0c9f74754ebdbfc544b05a258610f633390565b816001600160a01b0316836001600160a01b0316141561109e5760405162461bcd60e51b815260206004820152601960248201527f4552433732313a20617070726f766520746f2063616c6c65720000000000000060448201526064016105db565b6001600160a01b03838116600081815260056020908152604080832094871680845294825291829020805460ff191686151590811790915591519182527f17307eab39ab6107e8899845ad3d59bd9653f200f220920489ca2b5937696c31910160405180910390a3505050565b611116848484610d27565b611122848484846112fc565b610af55760405162461bcd60e51b81526004016105db90611870565b6060600880546104bc9061197f565b6060816111715750506040805180820190915260018152600360fc1b602082015290565b8160005b811561119b5780611185816119ba565b91506111949050600a83611928565b9150611175565b60008167ffffffffffffffff8111156111b6576111b6611a2b565b6040519080825280601f01601f1916602001820160405280156111e0576020820181803683370190505b5090505b8415610d1f576111f560018361193c565b9150611202600a866119d5565b61120d906030611910565b60f81b81838151811061122257611222611a15565b60200101906001600160f81b031916908160001a905350611244600a86611928565b94506111e4565b61067c6112b6565b60065460ff166106c25760405162461bcd60e51b815260206004820152601460248201527314185d5cd8589b194e881b9bdd081c185d5cd95960621b60448201526064016105db565b610abf828260405180602001604052806000815250611409565b60065460ff16156106c25760405162461bcd60e51b815260206004820152601060248201526f14185d5cd8589b194e881c185d5cd95960821b60448201526064016105db565b60006001600160a01b0384163b156113fe57604051630a85bd0160e11b81526001600160a01b0385169063150b7a0290611340903390899088908890600401611820565b602060405180830381600087803b15801561135a57600080fd5b505af192505050801561138a575060408051601f3d908101601f191682019092526113879181019061178f565b60015b6113e4573d8080156113b8576040519150601f19603f3d011682016040523d82523d6000602084013e6113bd565b606091505b5080516113dc5760405162461bcd60e51b81526004016105db90611870565b805181602001fd5b6001600160e01b031916630a85bd0160e11b149050610d1f565b506001949350505050565b611413838361143c565b61142060008484846112fc565b61067c5760405162461bcd60e51b81526004016105db90611870565b6001600160a01b0382166114925760405162461bcd60e51b815260206004820181905260248201527f4552433732313a206d696e7420746f20746865207a65726f206164647265737360448201526064016105db565b6000818152600260205260409020546001600160a01b0316156114f75760405162461bcd60e51b815260206004820152601c60248201527f4552433732313a20746f6b656e20616c7265616479206d696e7465640000000060448201526064016105db565b6115036000838361124b565b6001600160a01b038216600090815260036020526040812080546001929061152c908490611910565b909155505060008181526002602052604080822080546001600160a01b0319166001600160a01b03861690811790915590518392907fddf252ad1be2c89b69c2b068fc378daa952ba7f163c4a11628f55a4df523b3ef908290a45050565b80356001600160a01b03811681146115a157600080fd5b919050565b6000602082840312156115b857600080fd5b610b5b8261158a565b600080604083850312156115d457600080fd5b6115dd8361158a565b91506115eb6020840161158a565b90509250929050565b60008060006060848603121561160957600080fd5b6116128461158a565b92506116206020850161158a565b9150604084013590509250925092565b6000806000806080858703121561164657600080fd5b61164f8561158a565b935061165d6020860161158a565b925060408501359150606085013567ffffffffffffffff8082111561168157600080fd5b818701915087601f83011261169557600080fd5b8135818111156116a7576116a7611a2b565b604051601f8201601f19908116603f011681019083821181831017156116cf576116cf611a2b565b816040528281528a60208487010111156116e857600080fd5b82602086016020830137600060208483010152809550505050505092959194509250565b6000806040838503121561171f57600080fd5b6117288361158a565b91506020830135801515811461173d57600080fd5b809150509250929050565b6000806040838503121561175b57600080fd5b6117648361158a565b946020939093013593505050565b60006020828403121561178457600080fd5b8135610b5b81611a41565b6000602082840312156117a157600080fd5b8151610b5b81611a41565b6000602082840312156117be57600080fd5b5035919050565b600081518084526117dd816020860160208601611953565b601f01601f19169290920160200192915050565b60008351611803818460208801611953565b835190830190611817818360208801611953565b01949350505050565b6001600160a01b0385811682528416602082015260408101839052608060608201819052600090611853908301846117c5565b9695505050505050565b602081526000610b5b60208301846117c5565b60208082526032908201527f4552433732313a207472616e7366657220746f206e6f6e20455243373231526560408201527131b2b4bb32b91034b6b83632b6b2b73a32b960711b606082015260800190565b6020808252602e908201527f4552433732313a2063616c6c6572206973206e6f7420746f6b656e206f776e6560408201526d1c881b9bdc88185c1c1c9bdd995960921b606082015260800190565b60008219821115611923576119236119e9565b500190565b600082611937576119376119ff565b500490565b60008282101561194e5761194e6119e9565b500390565b60005b8381101561196e578181015183820152602001611956565b83811115610af55750506000910152565b600181811c9082168061199357607f821691505b602082108114156119b457634e487b7160e01b600052602260045260246000fd5b50919050565b60006000198214156119ce576119ce6119e9565b5060010190565b6000826119e4576119e46119ff565b500690565b634e487b7160e01b600052601160045260246000fd5b634e487b7160e01b600052601260045260246000fd5b634e487b7160e01b600052603260045260246000fd5b634e487b7160e01b600052604160045260246000fd5b6001600160e01b031981168114610bd857600080fdfea264697066735822122068b1da81c011ec029178f51920b5c541932a1d201c63c7f6444dc7eb04a4ce5a64736f6c63430008070033",
  "devdoc": {
    "kind": "dev",
    "methods": {
      "approve(address,uint256)": {
        "details": "See {IERC721-approve}."
      },
      "balanceOf(address)": {
        "details": "See {IERC721-balanceOf}."
      },
      "getApproved(uint256)": {
        "details": "See {IERC721-getApproved}."
      },
      "isApprovedForAll(address,address)": {
        "details": "See {IERC721-isApprovedForAll}."
      },
      "name()": {
        "details": "See {IERC721Metadata-name}."
      },
      "owner()": {
        "details": "Returns the address of the current owner."
      },
      "ownerOf(uint256)": {
        "details": "See {IERC721-ownerOf}."
      },
      "paused()": {
        "details": "Returns true if the contract is paused, and false otherwise."
      },
      "renounceOwnership()": {
        "details": "Leaves the contract without owner. It will not be possible to call `onlyOwner` functions anymore. Can only be called by the current owner. NOTE: Renouncing ownership will leave the contract without an owner, thereby removing any functionality that is only available to the owner."
      },
      "safeTransferFrom(address,address,uint256)": {
        "details": "See {IERC721-safeTransferFrom}."
      },
      "safeTransferFrom(address,address,uint256,bytes)": {
        "details": "See {IERC721-safeTransferFrom}."
      },
      "setApprovalForAll(address,bool)": {
        "details": "See {IERC721-setApprovalForAll}."
      },
      "supportsInterface(bytes4)": {
        "details": "See {IERC165-supportsInterface}."
      },
      "symbol()": {
        "details": "See {IERC721Metadata-symbol}."
      },
      "tokenURI(uint256)": {
        "details": "See {IERC721Metadata-tokenURI}."
      },
      "transferFrom(address,address,uint256)": {
        "details": "See {IERC721-transferFrom}."
      },
      "transferOwnership(address)": {
        "details": "Transfers ownership of the contract to a new account (`newOwner`). Can only be called by the current owner."
      }
    },
    "version": 1
  },
  "userdoc": {
    "kind": "user",
    "methods": {},
    "version": 1
  },
  "storageLayout": {
    "storage": [
      {
        "astId": 975,
        "contract": "solidity/contracts/Cryptobadies.sol:Cryptobadies",
        "label": "_name",
        "offset": 0,
        "slot": "0",
        "type": "t_string_storage"
      },
      {
        "astId": 977,
        "contract": "solidity/contracts/Cryptobadies.sol:Cryptobadies",
        "label": "_symbol",
        "offset": 0,
        "slot": "1",
        "type": "t_string_storage"
      },
      {
        "astId": 981,
        "contract": "solidity/contracts/Cryptobadies.sol:Cryptobadies",
        "label": "_owners",
        "offset": 0,
        "slot": "2",
        "type": "t_mapping(t_uint256,t_address)"
      },
      {
        "astId": 985,
        "contract": "solidity/contracts/Cryptobadies.sol:Cryptobadies",
        "label": "_balances",
        "offset": 0,
        "slot": "3",
        "type": "t_mapping(t_address,t_uint256)"
      },
      {
        "astId": 989,
        "contract": "solidity/contracts/Cryptobadies.sol:Cryptobadies",
        "label": "_tokenApprovals",
        "offset": 0,
        "slot": "4",
        "type": "t_mapping(t_uint256,t_address)"
      },
      {
        "astId": 995,
        "contract": "solidity/contracts/Cryptobadies.sol:Cryptobadies",
        "label": "_operatorApprovals",
        "offset": 0,
        "slot": "5",
        "type": "t_mapping(t_address,t_mapping(t_address,t_bool))"
      },
      {
        "astId": 130,
        "contract": "solidity/contracts/Cryptobadies.sol:Cryptobadies",
        "label": "_paused",
        "offset": 0,
        "slot": "6",
        "type": "t_bool"
      },
      {
        "astId": 7,
        "contract": "solidity/contracts/Cryptobadies.sol:Cryptobadies",
        "label": "_owner",
        "offset": 1,
        "slot": "6",
        "type": "t_address"
      },
      {
        "astId": 231,
        "contract": "solidity/contracts/Cryptobadies.sol:Cryptobadies",
        "label": "_status",
        "offset": 0,
        "slot": "7",
        "type": "t_uint256"
      },
      {
        "astId": 2756,
        "contract": "solidity/contracts/Cryptobadies.sol:Cryptobadies",
        "label": "baseUri",
        "offset": 0,
        "slot": "8",
        "type": "t_string_storage"
      },
      {
        "astId": 2758,
        "contract": "solidity/contracts/Cryptobadies.sol:Cryptobadies",
        "label": "totalSupply",
        "offset": 0,
        "slot": "9",
        "type": "t_uint256"
      },
      {
        "astId": 2760,
        "contract": "solidity/contracts/Cryptobadies.sol:Cryptobadies",
        "label": "nftPrice",
        "offset": 0,
        "slot": "10",
        "type": "t_uint256"
      },
      {
        "astId": 2762,
        "contract": "solidity/contracts/Cryptobadies.sol:Cryptobadies",
        "label": "_cryptoBadiesWallet",
        "offset": 0,
        "slot": "11",
        "type": "t_address_payable"
      },
      {
        "astId": 2765,
        "contract": "solidity/contracts/Cryptobadies.sol:Cryptobadies",
        "label": "_tokenIdCounter",
        "offset": 0,
        "slot": "12",
        "type": "t_struct(Counter)2300_storage"
      }
    ],
    "types": {
      "t_address": {
        "encoding": "inplace",
        "label": "address",
        "numberOfBytes": "20"
      },
      "t_address_payable": {
        "encoding": "inplace",
        "label": "address payable",
        "numberOfBytes": "20"
      },
      "t_bool": {
        "encoding": "inplace",
        "label": "bool",
        "numberOfBytes": "1"
      },
      "t_mapping(t_address,t_bool)": {
        "encoding": "mapping",
        "key": "t_address",
        "label": "mapping(address => bool)",
        "numberOfBytes": "32",
        "value": "t_bool"
      },
      "t_mapping(t_address,t_mapping(t_address,t_bool))": {
        "encoding": "mapping",
        "key": "t_address",
        "label": "mapping(address => mapping(address => bool))",
        "numberOfBytes": "32",
        "value": "t_mapping(t_address,t_bool)"
      },
      "t_mapping(t_address,t_uint256)": {
        "encoding": "mapping",
        "key": "t_address",
        "label": "mapping(address => uint256)",
        "numberOfBytes": "32",
        "value": "t_uint256"
      },
      "t_mapping(t_uint256,t_address)": {
        "encoding": "mapping",
        "key": "t_uint256",
        "label": "mapping(uint256 => address)",
        "numberOfBytes": "32",
        "value": "t_address"
      },
      "t_string_storage": {
        "encoding": "bytes",
        "label": "string",
        "numberOfBytes": "32"
      },
      "t_struct(Counter)2300_storage": {
        "encoding": "inplace",
        "label": "struct Counters.Counter",
        "members": [
          {
            "astId": 2299,
            "contract": "solidity/contracts/Cryptobadies.sol:Cryptobadies",
            "label": "_value",
            "offset": 0,
            "slot": "0",
            "type": "t_uint256"
          }
        ],
        "numberOfBytes": "32"
      },
      "t_uint256": {
        "encoding": "inplace",
        "label": "uint256",
        "numberOfBytes": "32"
      }
    }
  }
}