{
  "address": "0x8a2d1aD080400ecCc750A9DDB0E705625AA24FcF",
  "abi": [
    {
      "anonymous": false,
      "inputs": [
        {
          "indexed": false,
          "internalType": "address",
          "name": "nftAddress",
          "type": "address"
        }
      ],
      "name": "DeployCollection",
      "type": "event"
    },
    {
      "anonymous": false,
      "inputs": [
        {
          "indexed": true,
          "internalType": "address",
          "name": "previousOwner",
          "type": "address"
        },
        {
          "indexed": true,
          "internalType": "address",
          "name": "newOwner",
          "type": "address"
        }
      ],
      "name": "OwnershipTransferred",
      "type": "event"
    },
    {
      "inputs": [
        {
          "internalType": "uint256",
          "name": "",
          "type": "uint256"
        }
      ],
      "name": "collectionAddressFromId",
      "outputs": [
        {
          "internalType": "address",
          "name": "",
          "type": "address"
        }
      ],
      "stateMutability": "view",
      "type": "function"
    },
    {
      "inputs": [],
      "name": "collectionCount",
      "outputs": [
        {
          "internalType": "uint256",
          "name": "",
          "type": "uint256"
        }
      ],
      "stateMutability": "view",
      "type": "function"
    },
    {
      "inputs": [
        {
          "internalType": "string",
          "name": "name",
          "type": "string"
        },
        {
          "internalType": "string",
          "name": "symbol",
          "type": "string"
        },
        {
          "internalType": "string",
          "name": "baseURI",
          "type": "string"
        },
        {
          "internalType": "uint8",
          "name": "totalSupply",
          "type": "uint8"
        }
      ],
      "name": "newCollection",
      "outputs": [],
      "stateMutability": "nonpayable",
      "type": "function"
    },
    {
      "inputs": [],
      "name": "owner",
      "outputs": [
        {
          "internalType": "address",
          "name": "",
          "type": "address"
        }
      ],
      "stateMutability": "view",
      "type": "function"
    },
    {
      "inputs": [],
      "name": "renounceOwnership",
      "outputs": [],
      "stateMutability": "nonpayable",
      "type": "function"
    },
    {
      "inputs": [
        {
          "internalType": "address",
          "name": "newOwner",
          "type": "address"
        }
      ],
      "name": "transferOwnership",
      "outputs": [],
      "stateMutability": "nonpayable",
      "type": "function"
    },
    {
      "inputs": [],
      "name": "walletOwns",
      "outputs": [],
      "stateMutability": "view",
      "type": "function"
    }
  ],
  "transactionHash": "0x958348f3f243ff1495a0206c5de39db025235c0708c26d436974e227ef03dbba",
  "args": [],
  "numDeployments": 2,
  "solcInputHash": "387407a50523b19015a440fa7eeb97b9",
  "bytecode": "0x608060405234801561001057600080fd5b5061001a3361001f565b61006f565b600080546001600160a01b038381166001600160a01b0319831681178455604051919092169283917f8be0079c531659141344cd1fd0a4f28419497f9722a3daafe3b4186f6b6457e09190a35050565b6123198061007e6000396000f3fe60806040523480156200001157600080fd5b5060043610620000875760003560e01c806394bafa12116200006257806394bafa1214620000f3578063c630c16f14620000fd578063d57f966b1462000114578063f2fde38b146200012d57600080fd5b806329e13bd5146200008c578063715018a614620000d55780638da5cb5b14620000e1575b600080fd5b620000b86200009d36600462000611565b6001602052600090815260409020546001600160a01b031681565b6040516001600160a01b0390911681526020015b60405180910390f35b620000df62000144565b005b6000546001600160a01b0316620000b8565b620000df6200015c565b620000df6200010e36600462000565565b62000218565b6200011e60025481565b604051908152602001620000cc565b620000df6200013e36600462000533565b62000364565b6200014e620003e4565b6200015a600062000440565b565b60005b602e8160ff1611620002155760ff8116600090815260016020526040908190205490516370a0823160e01b81523360048201526001600160a01b039091169081906370a082319060240160206040518083038186803b158015620001c257600080fd5b505afa158015620001d7573d6000803e3d6000fd5b505050506040513d601f19601f82011682018060405250810190620001fd91906200062b565b505080806200020c9062000707565b9150506200015f565b50565b62000222620003e4565b600084848484604051620002369062000490565b62000245949392919062000695565b604051809103906000f08015801562000262573d6000803e3d6000fd5b509050806001600160a01b03811663f2fde38b620002886000546001600160a01b031690565b6040516001600160e01b031960e084901b1681526001600160a01b039091166004820152602401600060405180830381600087803b158015620002ca57600080fd5b505af1158015620002df573d6000803e3d6000fd5b505060025460009081526001602090815260409182902080546001600160a01b0319166001600160a01b03871690811790915591519182527f4ae5170293a98522588167162defa1d76e4ebef99d3be3dfbe091280e478ec1d935001905060405180910390a1600280549060006200035783620006e9565b9190505550505050505050565b6200036e620003e4565b6001600160a01b038116620003d95760405162461bcd60e51b815260206004820152602660248201527f4f776e61626c653a206e6577206f776e657220697320746865207a65726f206160448201526564647265737360d01b60648201526084015b60405180910390fd5b620002158162000440565b6000546001600160a01b031633146200015a5760405162461bcd60e51b815260206004820181905260248201527f4f776e61626c653a2063616c6c6572206973206e6f7420746865206f776e65726044820152606401620003d0565b600080546001600160a01b038381166001600160a01b0319831681178455604051919092169283917f8be0079c531659141344cd1fd0a4f28419497f9722a3daafe3b4186f6b6457e09190a35050565b611b8d806200075783390190565b600082601f830112620004b057600080fd5b813567ffffffffffffffff80821115620004ce57620004ce62000740565b604051601f8301601f19908116603f01168101908282118183101715620004f957620004f962000740565b816040528381528660208588010111156200051357600080fd5b836020870160208301376000602085830101528094505050505092915050565b6000602082840312156200054657600080fd5b81356001600160a01b03811681146200055e57600080fd5b9392505050565b600080600080608085870312156200057c57600080fd5b843567ffffffffffffffff808211156200059557600080fd5b620005a3888389016200049e565b95506020870135915080821115620005ba57600080fd5b620005c8888389016200049e565b94506040870135915080821115620005df57600080fd5b50620005ee878288016200049e565b925050606085013560ff811681146200060657600080fd5b939692955090935050565b6000602082840312156200062457600080fd5b5035919050565b6000602082840312156200063e57600080fd5b5051919050565b6000815180845260005b818110156200066d576020818501810151868301820152016200064f565b8181111562000680576000602083870101525b50601f01601f19169290920160200192915050565b608081526000620006aa608083018762000645565b8281036020840152620006be818762000645565b90508281036040840152620006d4818662000645565b91505060ff8316606083015295945050505050565b60006000198214156200070057620007006200072a565b5060010190565b600060ff821660ff8114156200072157620007216200072a565b60010192915050565b634e487b7160e01b600052601160045260246000fd5b634e487b7160e01b600052604160045260246000fdfe60806040523480156200001157600080fd5b5060405162001b8d38038062001b8d833981016040819052620000349162000259565b8351849084906200004d906000906020850190620000fc565b50805162000063906001906020840190620000fc565b50506006805460ff19169055506200007b33620000a2565b60ff8116600855815162000097906007906020850190620000fc565b505050505062000357565b600680546001600160a01b03838116610100818102610100600160a81b031985161790945560405193909204169182907f8be0079c531659141344cd1fd0a4f28419497f9722a3daafe3b4186f6b6457e090600090a35050565b8280546200010a9062000304565b90600052602060002090601f0160209004810192826200012e576000855562000179565b82601f106200014957805160ff191683800117855562000179565b8280016001018555821562000179579182015b82811115620001795782518255916020019190600101906200015c565b50620001879291506200018b565b5090565b5b808211156200018757600081556001016200018c565b600082601f830112620001b457600080fd5b81516001600160401b0380821115620001d157620001d162000341565b604051601f8301601f19908116603f01168101908282118183101715620001fc57620001fc62000341565b816040528381526020925086838588010111156200021957600080fd5b600091505b838210156200023d57858201830151818301840152908201906200021e565b838211156200024f5760008385830101525b9695505050505050565b600080600080608085870312156200027057600080fd5b84516001600160401b03808211156200028857600080fd5b6200029688838901620001a2565b95506020870151915080821115620002ad57600080fd5b620002bb88838901620001a2565b94506040870151915080821115620002d257600080fd5b50620002e187828801620001a2565b925050606085015160ff81168114620002f957600080fd5b939692955090935050565b600181811c908216806200031957607f821691505b602082108114156200033b57634e487b7160e01b600052602260045260246000fd5b50919050565b634e487b7160e01b600052604160045260246000fd5b61182680620003676000396000f3fe608060405234801561001057600080fd5b50600436106101425760003560e01c806370a08231116100b85780639abc83201161007c5780639abc83201461027b578063a22cb46514610283578063b88d4fde14610296578063c87b56dd146102a9578063e985e9c5146102bc578063f2fde38b146102f857600080fd5b806370a082311461023a578063715018a61461024d5780638456cb59146102555780638da5cb5b1461025d57806395d89b411461027357600080fd5b806323b872dd1161010a57806323b872dd146101db5780633f4ba83a146101ee57806340d097c3146101f657806342842e0e146102095780635c975abb1461021c5780636352211e1461022757600080fd5b806301ffc9a71461014757806306fdde031461016f578063081812fc14610184578063095ea7b3146101af57806318160ddd146101c4575b600080fd5b61015a6101553660046114ba565b61030b565b60405190151581526020015b60405180910390f35b61017761035d565b60405161016691906115a5565b6101976101923660046114f4565b6103ef565b6040516001600160a01b039091168152602001610166565b6101c26101bd366004611490565b610416565b005b6101cd60085481565b604051908152602001610166565b6101c26101e936600461133c565b610531565b6101c2610562565b6101c26102043660046112ee565b610574565b6101c261021736600461133c565b610650565b60065460ff1661015a565b6101976102353660046114f4565b61066b565b6101cd6102483660046112ee565b6106cb565b6101c2610751565b6101c2610763565b60065461010090046001600160a01b0316610197565b610177610773565b610177610782565b6101c2610291366004611454565b610810565b6101c26102a4366004611378565b61081f565b6101776102b73660046114f4565b610857565b61015a6102ca366004611309565b6001600160a01b03918216600090815260056020908152604080832093909416825291909152205460ff1690565b6101c26103063660046112ee565b6108be565b60006001600160e01b031982166380ac58cd60e01b148061033c57506001600160e01b03198216635b5e139f60e01b145b8061035757506301ffc9a760e01b6001600160e01b03198316145b92915050565b60606000805461036c906116c7565b80601f0160208091040260200160405190810160405280929190818152602001828054610398906116c7565b80156103e55780601f106103ba576101008083540402835291602001916103e5565b820191906000526020600020905b8154815290600101906020018083116103c857829003601f168201915b5050505050905090565b60006103fa82610937565b506000908152600460205260409020546001600160a01b031690565b60006104218261066b565b9050806001600160a01b0316836001600160a01b031614156104945760405162461bcd60e51b815260206004820152602160248201527f4552433732313a20617070726f76616c20746f2063757272656e74206f776e656044820152603960f91b60648201526084015b60405180910390fd5b336001600160a01b03821614806104b057506104b081336102ca565b6105225760405162461bcd60e51b815260206004820152603e60248201527f4552433732313a20617070726f76652063616c6c6572206973206e6f7420746f60448201527f6b656e206f776e6572206e6f7220617070726f76656420666f7220616c6c0000606482015260840161048b565b61052c8383610996565b505050565b61053b3382610a04565b6105575760405162461bcd60e51b815260040161048b9061160a565b61052c838383610a83565b61056a610c2a565b610572610c8a565b565b61057c610c2a565b60085460095411156105d05760405162461bcd60e51b815260206004820181905260248201527f416c6c206e667473206f6620636f6e74726163742077657265206d696e746564604482015260640161048b565b60006105db336106cb565b9050801561062b5760405162461bcd60e51b815260206004820152601f60248201527f546869732077616c6c657420616c7265616479206f776e7320616e206e667400604482015260640161048b565b600061063660095490565b9050610646600980546001019055565b61052c8382610cdc565b61052c8383836040518060200160405280600081525061081f565b6000818152600260205260408120546001600160a01b0316806103575760405162461bcd60e51b8152602060048201526018602482015277115490cdcc8c4e881a5b9d985b1a59081d1bdad95b88125160421b604482015260640161048b565b60006001600160a01b0382166107355760405162461bcd60e51b815260206004820152602960248201527f4552433732313a2061646472657373207a65726f206973206e6f7420612076616044820152683634b21037bbb732b960b91b606482015260840161048b565b506001600160a01b031660009081526003602052604090205490565b610759610c2a565b6105726000610cf6565b61076b610c2a565b610572610d50565b60606001805461036c906116c7565b6007805461078f906116c7565b80601f01602080910402602001604051908101604052809291908181526020018280546107bb906116c7565b80156108085780601f106107dd57610100808354040283529160200191610808565b820191906000526020600020905b8154815290600101906020018083116107eb57829003601f168201915b505050505081565b61081b338383610d8d565b5050565b6108293383610a04565b6108455760405162461bcd60e51b815260040161048b9061160a565b61085184848484610e5c565b50505050565b606061086282610937565b600061086c610e8f565b9050600081511161088c57604051806020016040528060008152506108b7565b8061089684610eaf565b6040516020016108a7929190611539565b6040516020818303038152906040525b9392505050565b6108c6610c2a565b6001600160a01b03811661092b5760405162461bcd60e51b815260206004820152602660248201527f4f776e61626c653a206e6577206f776e657220697320746865207a65726f206160448201526564647265737360d01b606482015260840161048b565b61093481610cf6565b50565b6000818152600260205260409020546001600160a01b03166109345760405162461bcd60e51b8152602060048201526018602482015277115490cdcc8c4e881a5b9d985b1a59081d1bdad95b88125160421b604482015260640161048b565b600081815260046020526040902080546001600160a01b0319166001600160a01b03841690811790915581906109cb8261066b565b6001600160a01b03167f8c5be1e5ebec7d5bd14f71427d1e84f3dd0314c0f7b2291e5b200ac8c7c3b92560405160405180910390a45050565b600080610a108361066b565b9050806001600160a01b0316846001600160a01b03161480610a5757506001600160a01b0380821660009081526005602090815260408083209388168352929052205460ff165b80610a7b5750836001600160a01b0316610a70846103ef565b6001600160a01b0316145b949350505050565b826001600160a01b0316610a968261066b565b6001600160a01b031614610afa5760405162461bcd60e51b815260206004820152602560248201527f4552433732313a207472616e736665722066726f6d20696e636f72726563742060448201526437bbb732b960d91b606482015260840161048b565b6001600160a01b038216610b5c5760405162461bcd60e51b8152602060048201526024808201527f4552433732313a207472616e7366657220746f20746865207a65726f206164646044820152637265737360e01b606482015260840161048b565b610b67838383610fad565b610b72600082610996565b6001600160a01b0383166000908152600360205260408120805460019290610b9b908490611684565b90915550506001600160a01b0382166000908152600360205260408120805460019290610bc9908490611658565b909155505060008181526002602052604080822080546001600160a01b0319166001600160a01b0386811691821790925591518493918716917fddf252ad1be2c89b69c2b068fc378daa952ba7f163c4a11628f55a4df523b3ef91a4505050565b6006546001600160a01b036101009091041633146105725760405162461bcd60e51b815260206004820181905260248201527f4f776e61626c653a2063616c6c6572206973206e6f7420746865206f776e6572604482015260640161048b565b610c92610fb5565b6006805460ff191690557f5db9ee0a495bf2e6ff9c91a7834c1ba4fdd244a5e8aa4e537bd38aeae4b073aa335b6040516001600160a01b03909116815260200160405180910390a1565b61081b828260405180602001604052806000815250610ffe565b600680546001600160a01b03838116610100818102610100600160a81b031985161790945560405193909204169182907f8be0079c531659141344cd1fd0a4f28419497f9722a3daafe3b4186f6b6457e090600090a35050565b610d58611031565b6006805460ff191660011790557f62e78cea01bee320cd4e420270b5ea74000d11b0c9f74754ebdbfc544b05a258610cbf3390565b816001600160a01b0316836001600160a01b03161415610def5760405162461bcd60e51b815260206004820152601960248201527f4552433732313a20617070726f766520746f2063616c6c657200000000000000604482015260640161048b565b6001600160a01b03838116600081815260056020908152604080832094871680845294825291829020805460ff191686151590811790915591519182527f17307eab39ab6107e8899845ad3d59bd9653f200f220920489ca2b5937696c31910160405180910390a3505050565b610e67848484610a83565b610e7384848484611077565b6108515760405162461bcd60e51b815260040161048b906115b8565b60606040518060800160405280605181526020016117a060519139905090565b606081610ed35750506040805180820190915260018152600360fc1b602082015290565b8160005b8115610efd5780610ee781611702565b9150610ef69050600a83611670565b9150610ed7565b60008167ffffffffffffffff811115610f1857610f18611773565b6040519080825280601f01601f191660200182016040528015610f42576020820181803683370190505b5090505b8415610a7b57610f57600183611684565b9150610f64600a8661171d565b610f6f906030611658565b60f81b818381518110610f8457610f8461175d565b60200101906001600160f81b031916908160001a905350610fa6600a86611670565b9450610f46565b61052c611031565b60065460ff166105725760405162461bcd60e51b815260206004820152601460248201527314185d5cd8589b194e881b9bdd081c185d5cd95960621b604482015260640161048b565b6110088383611184565b6110156000848484611077565b61052c5760405162461bcd60e51b815260040161048b906115b8565b60065460ff16156105725760405162461bcd60e51b815260206004820152601060248201526f14185d5cd8589b194e881c185d5cd95960821b604482015260640161048b565b60006001600160a01b0384163b1561117957604051630a85bd0160e11b81526001600160a01b0385169063150b7a02906110bb903390899088908890600401611568565b602060405180830381600087803b1580156110d557600080fd5b505af1925050508015611105575060408051601f3d908101601f19168201909252611102918101906114d7565b60015b61115f573d808015611133576040519150601f19603f3d011682016040523d82523d6000602084013e611138565b606091505b5080516111575760405162461bcd60e51b815260040161048b906115b8565b805181602001fd5b6001600160e01b031916630a85bd0160e11b149050610a7b565b506001949350505050565b6001600160a01b0382166111da5760405162461bcd60e51b815260206004820181905260248201527f4552433732313a206d696e7420746f20746865207a65726f2061646472657373604482015260640161048b565b6000818152600260205260409020546001600160a01b03161561123f5760405162461bcd60e51b815260206004820152601c60248201527f4552433732313a20746f6b656e20616c7265616479206d696e74656400000000604482015260640161048b565b61124b60008383610fad565b6001600160a01b0382166000908152600360205260408120805460019290611274908490611658565b909155505060008181526002602052604080822080546001600160a01b0319166001600160a01b03861690811790915590518392907fddf252ad1be2c89b69c2b068fc378daa952ba7f163c4a11628f55a4df523b3ef908290a45050565b80356001600160a01b03811681146112e957600080fd5b919050565b60006020828403121561130057600080fd5b6108b7826112d2565b6000806040838503121561131c57600080fd5b611325836112d2565b9150611333602084016112d2565b90509250929050565b60008060006060848603121561135157600080fd5b61135a846112d2565b9250611368602085016112d2565b9150604084013590509250925092565b6000806000806080858703121561138e57600080fd5b611397856112d2565b93506113a5602086016112d2565b925060408501359150606085013567ffffffffffffffff808211156113c957600080fd5b818701915087601f8301126113dd57600080fd5b8135818111156113ef576113ef611773565b604051601f8201601f19908116603f0116810190838211818310171561141757611417611773565b816040528281528a602084870101111561143057600080fd5b82602086016020830137600060208483010152809550505050505092959194509250565b6000806040838503121561146757600080fd5b611470836112d2565b91506020830135801515811461148557600080fd5b809150509250929050565b600080604083850312156114a357600080fd5b6114ac836112d2565b946020939093013593505050565b6000602082840312156114cc57600080fd5b81356108b781611789565b6000602082840312156114e957600080fd5b81516108b781611789565b60006020828403121561150657600080fd5b5035919050565b6000815180845261152581602086016020860161169b565b601f01601f19169290920160200192915050565b6000835161154b81846020880161169b565b83519083019061155f81836020880161169b565b01949350505050565b6001600160a01b038581168252841660208201526040810183905260806060820181905260009061159b9083018461150d565b9695505050505050565b6020815260006108b7602083018461150d565b60208082526032908201527f4552433732313a207472616e7366657220746f206e6f6e20455243373231526560408201527131b2b4bb32b91034b6b83632b6b2b73a32b960711b606082015260800190565b6020808252602e908201527f4552433732313a2063616c6c6572206973206e6f7420746f6b656e206f776e6560408201526d1c881b9bdc88185c1c1c9bdd995960921b606082015260800190565b6000821982111561166b5761166b611731565b500190565b60008261167f5761167f611747565b500490565b60008282101561169657611696611731565b500390565b60005b838110156116b657818101518382015260200161169e565b838111156108515750506000910152565b600181811c908216806116db57607f821691505b602082108114156116fc57634e487b7160e01b600052602260045260246000fd5b50919050565b600060001982141561171657611716611731565b5060010190565b60008261172c5761172c611747565b500690565b634e487b7160e01b600052601160045260246000fd5b634e487b7160e01b600052601260045260246000fd5b634e487b7160e01b600052603260045260246000fd5b634e487b7160e01b600052604160045260246000fd5b6001600160e01b03198116811461093457600080fdfe68747470733a2f2f676174657761792e70696e6174612e636c6f75642f697066732f516d596d75327956504479643666445a3247516e7745397331673642474c324b3558427a53706548436f413262792fa2646970667358221220e4ac07d0c30eb2480b840b99d2e205916c8fc537daefcafce780060ba12f7ff664736f6c63430008070033a2646970667358221220bb66e4758fe87071a54ed171f1044cfe715623fd0d8d081a90a846e19915b4dc64736f6c63430008070033",
  "devdoc": {
    "kind": "dev",
    "methods": {
      "owner()": {
        "details": "Returns the address of the current owner."
      },
      "renounceOwnership()": {
        "details": "Leaves the contract without owner. It will not be possible to call `onlyOwner` functions anymore. Can only be called by the current owner. NOTE: Renouncing ownership will leave the contract without an owner, thereby removing any functionality that is only available to the owner."
      },
      "transferOwnership(address)": {
        "details": "Transfers ownership of the contract to a new account (`newOwner`). Can only be called by the current owner."
      }
    },
    "version": 1
  },
  "userdoc": {
    "kind": "user",
    "methods": {},
    "version": 1
  },
  "storageLayout": {
    "storage": [
      {
        "astId": 7,
        "contract": "solidity/contracts/Cb721Factory.sol:Cb721Factory",
        "label": "_owner",
        "offset": 0,
        "slot": "0",
        "type": "t_address"
      },
      {
        "astId": 1911,
        "contract": "solidity/contracts/Cb721Factory.sol:Cb721Factory",
        "label": "collectionAddressFromId",
        "offset": 0,
        "slot": "1",
        "type": "t_mapping(t_uint256,t_address)"
      },
      {
        "astId": 1913,
        "contract": "solidity/contracts/Cb721Factory.sol:Cb721Factory",
        "label": "collectionCount",
        "offset": 0,
        "slot": "2",
        "type": "t_uint256"
      }
    ],
    "types": {
      "t_address": {
        "encoding": "inplace",
        "label": "address",
        "numberOfBytes": "20"
      },
      "t_mapping(t_uint256,t_address)": {
        "encoding": "mapping",
        "key": "t_uint256",
        "label": "mapping(uint256 => address)",
        "numberOfBytes": "32",
        "value": "t_address"
      },
      "t_uint256": {
        "encoding": "inplace",
        "label": "uint256",
        "numberOfBytes": "32"
      }
    }
  }
}