{
  "address": "0x2A8BCC399eD508CCaf53aB69a7936e73870c76Cd",
  "abi": [
    {
      "inputs": [
        {
          "internalType": "string",
          "name": "name",
          "type": "string"
        },
        {
          "internalType": "string",
          "name": "symbol",
          "type": "string"
        },
        {
          "internalType": "string",
          "name": "_baseUri",
          "type": "string"
        },
        {
          "internalType": "uint8",
          "name": "_totalSupply",
          "type": "uint8"
        },
        {
          "internalType": "address payable",
          "name": "cryptoBadiesWallet",
          "type": "address"
        }
      ],
      "stateMutability": "nonpayable",
      "type": "constructor"
    },
    {
      "anonymous": false,
      "inputs": [
        {
          "indexed": true,
          "internalType": "address",
          "name": "owner",
          "type": "address"
        },
        {
          "indexed": true,
          "internalType": "address",
          "name": "approved",
          "type": "address"
        },
        {
          "indexed": true,
          "internalType": "uint256",
          "name": "tokenId",
          "type": "uint256"
        }
      ],
      "name": "Approval",
      "type": "event"
    },
    {
      "anonymous": false,
      "inputs": [
        {
          "indexed": true,
          "internalType": "address",
          "name": "owner",
          "type": "address"
        },
        {
          "indexed": true,
          "internalType": "address",
          "name": "operator",
          "type": "address"
        },
        {
          "indexed": false,
          "internalType": "bool",
          "name": "approved",
          "type": "bool"
        }
      ],
      "name": "ApprovalForAll",
      "type": "event"
    },
    {
      "anonymous": false,
      "inputs": [
        {
          "indexed": true,
          "internalType": "address",
          "name": "previousOwner",
          "type": "address"
        },
        {
          "indexed": true,
          "internalType": "address",
          "name": "newOwner",
          "type": "address"
        }
      ],
      "name": "OwnershipTransferred",
      "type": "event"
    },
    {
      "anonymous": false,
      "inputs": [
        {
          "indexed": false,
          "internalType": "address",
          "name": "account",
          "type": "address"
        }
      ],
      "name": "Paused",
      "type": "event"
    },
    {
      "anonymous": false,
      "inputs": [
        {
          "indexed": false,
          "internalType": "uint256",
          "name": "price",
          "type": "uint256"
        }
      ],
      "name": "PriceSet",
      "type": "event"
    },
    {
      "anonymous": false,
      "inputs": [
        {
          "indexed": true,
          "internalType": "address",
          "name": "from",
          "type": "address"
        },
        {
          "indexed": true,
          "internalType": "address",
          "name": "to",
          "type": "address"
        },
        {
          "indexed": true,
          "internalType": "uint256",
          "name": "tokenId",
          "type": "uint256"
        }
      ],
      "name": "Transfer",
      "type": "event"
    },
    {
      "anonymous": false,
      "inputs": [
        {
          "indexed": false,
          "internalType": "address",
          "name": "account",
          "type": "address"
        }
      ],
      "name": "Unpaused",
      "type": "event"
    },
    {
      "inputs": [
        {
          "internalType": "address",
          "name": "to",
          "type": "address"
        },
        {
          "internalType": "uint256",
          "name": "tokenId",
          "type": "uint256"
        }
      ],
      "name": "approve",
      "outputs": [],
      "stateMutability": "nonpayable",
      "type": "function"
    },
    {
      "inputs": [
        {
          "internalType": "address",
          "name": "owner",
          "type": "address"
        }
      ],
      "name": "balanceOf",
      "outputs": [
        {
          "internalType": "uint256",
          "name": "",
          "type": "uint256"
        }
      ],
      "stateMutability": "view",
      "type": "function"
    },
    {
      "inputs": [],
      "name": "baseUri",
      "outputs": [
        {
          "internalType": "string",
          "name": "",
          "type": "string"
        }
      ],
      "stateMutability": "view",
      "type": "function"
    },
    {
      "inputs": [
        {
          "internalType": "address",
          "name": "_to",
          "type": "address"
        }
      ],
      "name": "buyNft",
      "outputs": [],
      "stateMutability": "payable",
      "type": "function"
    },
    {
      "inputs": [
        {
          "internalType": "uint256",
          "name": "tokenId",
          "type": "uint256"
        }
      ],
      "name": "getApproved",
      "outputs": [
        {
          "internalType": "address",
          "name": "",
          "type": "address"
        }
      ],
      "stateMutability": "view",
      "type": "function"
    },
    {
      "inputs": [
        {
          "internalType": "address",
          "name": "owner",
          "type": "address"
        },
        {
          "internalType": "address",
          "name": "operator",
          "type": "address"
        }
      ],
      "name": "isApprovedForAll",
      "outputs": [
        {
          "internalType": "bool",
          "name": "",
          "type": "bool"
        }
      ],
      "stateMutability": "view",
      "type": "function"
    },
    {
      "inputs": [],
      "name": "name",
      "outputs": [
        {
          "internalType": "string",
          "name": "",
          "type": "string"
        }
      ],
      "stateMutability": "view",
      "type": "function"
    },
    {
      "inputs": [],
      "name": "nftPrice",
      "outputs": [
        {
          "internalType": "uint256",
          "name": "",
          "type": "uint256"
        }
      ],
      "stateMutability": "view",
      "type": "function"
    },
    {
      "inputs": [],
      "name": "owner",
      "outputs": [
        {
          "internalType": "address",
          "name": "",
          "type": "address"
        }
      ],
      "stateMutability": "view",
      "type": "function"
    },
    {
      "inputs": [
        {
          "internalType": "uint256",
          "name": "tokenId",
          "type": "uint256"
        }
      ],
      "name": "ownerOf",
      "outputs": [
        {
          "internalType": "address",
          "name": "",
          "type": "address"
        }
      ],
      "stateMutability": "view",
      "type": "function"
    },
    {
      "inputs": [],
      "name": "pause",
      "outputs": [],
      "stateMutability": "nonpayable",
      "type": "function"
    },
    {
      "inputs": [],
      "name": "paused",
      "outputs": [
        {
          "internalType": "bool",
          "name": "",
          "type": "bool"
        }
      ],
      "stateMutability": "view",
      "type": "function"
    },
    {
      "inputs": [],
      "name": "renounceOwnership",
      "outputs": [],
      "stateMutability": "nonpayable",
      "type": "function"
    },
    {
      "inputs": [
        {
          "internalType": "address",
          "name": "to",
          "type": "address"
        }
      ],
      "name": "safeMint",
      "outputs": [],
      "stateMutability": "nonpayable",
      "type": "function"
    },
    {
      "inputs": [
        {
          "internalType": "address",
          "name": "from",
          "type": "address"
        },
        {
          "internalType": "address",
          "name": "to",
          "type": "address"
        },
        {
          "internalType": "uint256",
          "name": "tokenId",
          "type": "uint256"
        }
      ],
      "name": "safeTransferFrom",
      "outputs": [],
      "stateMutability": "nonpayable",
      "type": "function"
    },
    {
      "inputs": [
        {
          "internalType": "address",
          "name": "from",
          "type": "address"
        },
        {
          "internalType": "address",
          "name": "to",
          "type": "address"
        },
        {
          "internalType": "uint256",
          "name": "tokenId",
          "type": "uint256"
        },
        {
          "internalType": "bytes",
          "name": "data",
          "type": "bytes"
        }
      ],
      "name": "safeTransferFrom",
      "outputs": [],
      "stateMutability": "nonpayable",
      "type": "function"
    },
    {
      "inputs": [
        {
          "internalType": "address",
          "name": "operator",
          "type": "address"
        },
        {
          "internalType": "bool",
          "name": "approved",
          "type": "bool"
        }
      ],
      "name": "setApprovalForAll",
      "outputs": [],
      "stateMutability": "nonpayable",
      "type": "function"
    },
    {
      "inputs": [
        {
          "internalType": "uint256",
          "name": "_price",
          "type": "uint256"
        }
      ],
      "name": "setPrice",
      "outputs": [],
      "stateMutability": "nonpayable",
      "type": "function"
    },
    {
      "inputs": [
        {
          "internalType": "bytes4",
          "name": "interfaceId",
          "type": "bytes4"
        }
      ],
      "name": "supportsInterface",
      "outputs": [
        {
          "internalType": "bool",
          "name": "",
          "type": "bool"
        }
      ],
      "stateMutability": "view",
      "type": "function"
    },
    {
      "inputs": [],
      "name": "symbol",
      "outputs": [
        {
          "internalType": "string",
          "name": "",
          "type": "string"
        }
      ],
      "stateMutability": "view",
      "type": "function"
    },
    {
      "inputs": [
        {
          "internalType": "uint256",
          "name": "tokenId",
          "type": "uint256"
        }
      ],
      "name": "tokenURI",
      "outputs": [
        {
          "internalType": "string",
          "name": "",
          "type": "string"
        }
      ],
      "stateMutability": "view",
      "type": "function"
    },
    {
      "inputs": [],
      "name": "totalSupply",
      "outputs": [
        {
          "internalType": "uint256",
          "name": "",
          "type": "uint256"
        }
      ],
      "stateMutability": "view",
      "type": "function"
    },
    {
      "inputs": [
        {
          "internalType": "address",
          "name": "from",
          "type": "address"
        },
        {
          "internalType": "address",
          "name": "to",
          "type": "address"
        },
        {
          "internalType": "uint256",
          "name": "tokenId",
          "type": "uint256"
        }
      ],
      "name": "transferFrom",
      "outputs": [],
      "stateMutability": "nonpayable",
      "type": "function"
    },
    {
      "inputs": [
        {
          "internalType": "address",
          "name": "newOwner",
          "type": "address"
        }
      ],
      "name": "transferOwnership",
      "outputs": [],
      "stateMutability": "nonpayable",
      "type": "function"
    },
    {
      "inputs": [],
      "name": "unpause",
      "outputs": [],
      "stateMutability": "nonpayable",
      "type": "function"
    }
  ],
  "transactionHash": "0xca6c740ee999222e9fc06202cf895fd4c9a64d0e004faa3d0b4d57943f07b0ce",
  "args": [
    "CryptoBadies2",
    "CB2",
    "https://gateway.pinata.cloud/ipfs/QmYmu2yVPDyd6fDZ2GQnwE9s1g6BGL2K5XBzSpeHCoA2by/",
    46,
    "0x28d2e5970b4DA0fA27DfFe2072984382cF594531"
  ],
  "numDeployments": 5,
  "solcInputHash": "32f5bda39714843dc689b9b51dde3751",
  "bytecode": "0x60806040523480156200001157600080fd5b5060405162001e1338038062001e1383398101604081905262000034916200027a565b8451859085906200004d9060009060208501906200011d565b508051620000639060019060208401906200011d565b50506006805460ff19169055506200007b33620000c3565b60ff82166008558251620000979060079060208601906200011d565b50600a80546001600160a01b0319166001600160a01b0392909216919091179055506200039b92505050565b600680546001600160a01b03838116610100818102610100600160a81b031985161790945560405193909204169182907f8be0079c531659141344cd1fd0a4f28419497f9722a3daafe3b4186f6b6457e090600090a35050565b8280546200012b9062000348565b90600052602060002090601f0160209004810192826200014f57600085556200019a565b82601f106200016a57805160ff19168380011785556200019a565b828001600101855582156200019a579182015b828111156200019a5782518255916020019190600101906200017d565b50620001a8929150620001ac565b5090565b5b80821115620001a85760008155600101620001ad565b600082601f830112620001d557600080fd5b81516001600160401b0380821115620001f257620001f262000385565b604051601f8301601f19908116603f011681019082821181831017156200021d576200021d62000385565b816040528381526020925086838588010111156200023a57600080fd5b600091505b838210156200025e57858201830151818301840152908201906200023f565b83821115620002705760008385830101525b9695505050505050565b600080600080600060a086880312156200029357600080fd5b85516001600160401b0380821115620002ab57600080fd5b620002b989838a01620001c3565b96506020880151915080821115620002d057600080fd5b620002de89838a01620001c3565b95506040880151915080821115620002f557600080fd5b506200030488828901620001c3565b935050606086015160ff811681146200031c57600080fd5b60808701519092506001600160a01b03811681146200033a57600080fd5b809150509295509295909350565b600181811c908216806200035d57607f821691505b602082108114156200037f57634e487b7160e01b600052602260045260246000fd5b50919050565b634e487b7160e01b600052604160045260246000fd5b611a6880620003ab6000396000f3fe6080604052600436106101665760003560e01c80636352211e116100d157806395d89b411161008a578063b88d4fde11610064578063b88d4fde146103ed578063c87b56dd1461040d578063e985e9c51461042d578063f2fde38b1461047657600080fd5b806395d89b41146103a35780639abc8320146103b8578063a22cb465146103cd57600080fd5b80636352211e146102f657806370a0823114610316578063715018a6146103365780638456cb591461034b5780638da5cb5b1461036057806391b7f5ed1461038357600080fd5b806323b872dd1161012357806323b872dd146102565780633f4ba83a1461027657806340d097c31461028b57806342842e0e146102ab5780634c48d248146102cb5780635c975abb146102de57600080fd5b806301ffc9a71461016b57806306fdde03146101a0578063081812fc146101c2578063095ea7b3146101fa5780630d39fc811461021c57806318160ddd14610240575b600080fd5b34801561017757600080fd5b5061018b61018636600461174d565b610496565b60405190151581526020015b60405180910390f35b3480156101ac57600080fd5b506101b56104e8565b6040516101979190611838565b3480156101ce57600080fd5b506101e26101dd366004611787565b61057a565b6040516001600160a01b039091168152602001610197565b34801561020657600080fd5b5061021a610215366004611723565b6105a1565b005b34801561022857600080fd5b5061023260095481565b604051908152602001610197565b34801561024c57600080fd5b5061023260085481565b34801561026257600080fd5b5061021a6102713660046115cf565b6106bc565b34801561028257600080fd5b5061021a6106ed565b34801561029757600080fd5b5061021a6102a6366004611581565b6106ff565b3480156102b757600080fd5b5061021a6102c63660046115cf565b610728565b61021a6102d9366004611581565b610743565b3480156102ea57600080fd5b5060065460ff1661018b565b34801561030257600080fd5b506101e2610311366004611787565b6108d3565b34801561032257600080fd5b50610232610331366004611581565b610933565b34801561034257600080fd5b5061021a6109b9565b34801561035757600080fd5b5061021a6109cb565b34801561036c57600080fd5b5060065461010090046001600160a01b03166101e2565b34801561038f57600080fd5b5061021a61039e366004611787565b6109db565b3480156103af57600080fd5b506101b5610a1e565b3480156103c457600080fd5b506101b5610a2d565b3480156103d957600080fd5b5061021a6103e83660046116e7565b610abb565b3480156103f957600080fd5b5061021a61040836600461160b565b610ac6565b34801561041957600080fd5b506101b5610428366004611787565b610afe565b34801561043957600080fd5b5061018b61044836600461159c565b6001600160a01b03918216600090815260056020908152604080832093909416825291909152205460ff1690565b34801561048257600080fd5b5061021a610491366004611581565b610b65565b60006001600160e01b031982166380ac58cd60e01b14806104c757506001600160e01b03198216635b5e139f60e01b145b806104e257506301ffc9a760e01b6001600160e01b03198316145b92915050565b6060600080546104f79061195a565b80601f01602080910402602001604051908101604052809291908181526020018280546105239061195a565b80156105705780601f1061054557610100808354040283529160200191610570565b820191906000526020600020905b81548152906001019060200180831161055357829003601f168201915b5050505050905090565b600061058582610bdb565b506000908152600460205260409020546001600160a01b031690565b60006105ac826108d3565b9050806001600160a01b0316836001600160a01b0316141561061f5760405162461bcd60e51b815260206004820152602160248201527f4552433732313a20617070726f76616c20746f2063757272656e74206f776e656044820152603960f91b60648201526084015b60405180910390fd5b336001600160a01b038216148061063b575061063b8133610448565b6106ad5760405162461bcd60e51b815260206004820152603e60248201527f4552433732313a20617070726f76652063616c6c6572206973206e6f7420746f60448201527f6b656e206f776e6572206e6f7220617070726f76656420666f7220616c6c00006064820152608401610616565b6106b78383610c3a565b505050565b6106c63382610ca8565b6106e25760405162461bcd60e51b81526004016106169061189d565b6106b7838383610d27565b6106f5610ece565b6106fd610f2e565b565b600061070a600b5490565b905061071a600b80546001019055565b6107248282610f80565b5050565b6106b783838360405180602001604052806000815250610ac6565b600854600b5411156107975760405162461bcd60e51b815260206004820181905260248201527f416c6c206e667473206f6620636f6e74726163742077657265206d696e7465646044820152606401610616565b6107a033610933565b156107ed5760405162461bcd60e51b815260206004820152601f60248201527f546869732077616c6c657420616c7265616479206f776e7320616e206e6674006044820152606401610616565b60095461083c5760405162461bcd60e51b815260206004820152601c60248201527f4120707269636520686173206e6f74206265656e2073657420796574000000006044820152606401610616565b600954341461088d5760405162461bcd60e51b815260206004820181905260248201527f4d73672076616c7565206e6f7420657175616c20746f206e66742070726963656044820152606401610616565b600a546040516001600160a01b03909116903480156108fc02916000818181858888f193505050501580156108c6573d6000803e3d6000fd5b506108d0816106ff565b50565b6000818152600260205260408120546001600160a01b0316806104e25760405162461bcd60e51b8152602060048201526018602482015277115490cdcc8c4e881a5b9d985b1a59081d1bdad95b88125160421b6044820152606401610616565b60006001600160a01b03821661099d5760405162461bcd60e51b815260206004820152602960248201527f4552433732313a2061646472657373207a65726f206973206e6f7420612076616044820152683634b21037bbb732b960b91b6064820152608401610616565b506001600160a01b031660009081526003602052604090205490565b6109c1610ece565b6106fd6000610f9a565b6109d3610ece565b6106fd610ff4565b6109e3610ece565b60098190556040518181527f6bfd5e75539a9d2626425a2e2922675256b219fe546d63dad56011759b9a2f669060200160405180910390a150565b6060600180546104f79061195a565b60078054610a3a9061195a565b80601f0160208091040260200160405190810160405280929190818152602001828054610a669061195a565b8015610ab35780601f10610a8857610100808354040283529160200191610ab3565b820191906000526020600020905b815481529060010190602001808311610a9657829003601f168201915b505050505081565b610724338383611031565b610ad03383610ca8565b610aec5760405162461bcd60e51b81526004016106169061189d565b610af884848484611100565b50505050565b6060610b0982610bdb565b6000610b13611133565b90506000815111610b335760405180602001604052806000815250610b5e565b80610b3d84611142565b604051602001610b4e9291906117cc565b6040516020818303038152906040525b9392505050565b610b6d610ece565b6001600160a01b038116610bd25760405162461bcd60e51b815260206004820152602660248201527f4f776e61626c653a206e6577206f776e657220697320746865207a65726f206160448201526564647265737360d01b6064820152608401610616565b6108d081610f9a565b6000818152600260205260409020546001600160a01b03166108d05760405162461bcd60e51b8152602060048201526018602482015277115490cdcc8c4e881a5b9d985b1a59081d1bdad95b88125160421b6044820152606401610616565b600081815260046020526040902080546001600160a01b0319166001600160a01b0384169081179091558190610c6f826108d3565b6001600160a01b03167f8c5be1e5ebec7d5bd14f71427d1e84f3dd0314c0f7b2291e5b200ac8c7c3b92560405160405180910390a45050565b600080610cb4836108d3565b9050806001600160a01b0316846001600160a01b03161480610cfb57506001600160a01b0380821660009081526005602090815260408083209388168352929052205460ff165b80610d1f5750836001600160a01b0316610d148461057a565b6001600160a01b0316145b949350505050565b826001600160a01b0316610d3a826108d3565b6001600160a01b031614610d9e5760405162461bcd60e51b815260206004820152602560248201527f4552433732313a207472616e736665722066726f6d20696e636f72726563742060448201526437bbb732b960d91b6064820152608401610616565b6001600160a01b038216610e005760405162461bcd60e51b8152602060048201526024808201527f4552433732313a207472616e7366657220746f20746865207a65726f206164646044820152637265737360e01b6064820152608401610616565b610e0b838383611240565b610e16600082610c3a565b6001600160a01b0383166000908152600360205260408120805460019290610e3f908490611917565b90915550506001600160a01b0382166000908152600360205260408120805460019290610e6d9084906118eb565b909155505060008181526002602052604080822080546001600160a01b0319166001600160a01b0386811691821790925591518493918716917fddf252ad1be2c89b69c2b068fc378daa952ba7f163c4a11628f55a4df523b3ef91a4505050565b6006546001600160a01b036101009091041633146106fd5760405162461bcd60e51b815260206004820181905260248201527f4f776e61626c653a2063616c6c6572206973206e6f7420746865206f776e65726044820152606401610616565b610f36611248565b6006805460ff191690557f5db9ee0a495bf2e6ff9c91a7834c1ba4fdd244a5e8aa4e537bd38aeae4b073aa335b6040516001600160a01b03909116815260200160405180910390a1565b610724828260405180602001604052806000815250611291565b600680546001600160a01b03838116610100818102610100600160a81b031985161790945560405193909204169182907f8be0079c531659141344cd1fd0a4f28419497f9722a3daafe3b4186f6b6457e090600090a35050565b610ffc6112c4565b6006805460ff191660011790557f62e78cea01bee320cd4e420270b5ea74000d11b0c9f74754ebdbfc544b05a258610f633390565b816001600160a01b0316836001600160a01b031614156110935760405162461bcd60e51b815260206004820152601960248201527f4552433732313a20617070726f766520746f2063616c6c6572000000000000006044820152606401610616565b6001600160a01b03838116600081815260056020908152604080832094871680845294825291829020805460ff191686151590811790915591519182527f17307eab39ab6107e8899845ad3d59bd9653f200f220920489ca2b5937696c31910160405180910390a3505050565b61110b848484610d27565b6111178484848461130a565b610af85760405162461bcd60e51b81526004016106169061184b565b6060600780546104f79061195a565b6060816111665750506040805180820190915260018152600360fc1b602082015290565b8160005b8115611190578061117a81611995565b91506111899050600a83611903565b915061116a565b60008167ffffffffffffffff8111156111ab576111ab611a06565b6040519080825280601f01601f1916602001820160405280156111d5576020820181803683370190505b5090505b8415610d1f576111ea600183611917565b91506111f7600a866119b0565b6112029060306118eb565b60f81b818381518110611217576112176119f0565b60200101906001600160f81b031916908160001a905350611239600a86611903565b94506111d9565b6106b76112c4565b60065460ff166106fd5760405162461bcd60e51b815260206004820152601460248201527314185d5cd8589b194e881b9bdd081c185d5cd95960621b6044820152606401610616565b61129b8383611417565b6112a8600084848461130a565b6106b75760405162461bcd60e51b81526004016106169061184b565b60065460ff16156106fd5760405162461bcd60e51b815260206004820152601060248201526f14185d5cd8589b194e881c185d5cd95960821b6044820152606401610616565b60006001600160a01b0384163b1561140c57604051630a85bd0160e11b81526001600160a01b0385169063150b7a029061134e9033908990889088906004016117fb565b602060405180830381600087803b15801561136857600080fd5b505af1925050508015611398575060408051601f3d908101601f191682019092526113959181019061176a565b60015b6113f2573d8080156113c6576040519150601f19603f3d011682016040523d82523d6000602084013e6113cb565b606091505b5080516113ea5760405162461bcd60e51b81526004016106169061184b565b805181602001fd5b6001600160e01b031916630a85bd0160e11b149050610d1f565b506001949350505050565b6001600160a01b03821661146d5760405162461bcd60e51b815260206004820181905260248201527f4552433732313a206d696e7420746f20746865207a65726f20616464726573736044820152606401610616565b6000818152600260205260409020546001600160a01b0316156114d25760405162461bcd60e51b815260206004820152601c60248201527f4552433732313a20746f6b656e20616c7265616479206d696e746564000000006044820152606401610616565b6114de60008383611240565b6001600160a01b03821660009081526003602052604081208054600192906115079084906118eb565b909155505060008181526002602052604080822080546001600160a01b0319166001600160a01b03861690811790915590518392907fddf252ad1be2c89b69c2b068fc378daa952ba7f163c4a11628f55a4df523b3ef908290a45050565b80356001600160a01b038116811461157c57600080fd5b919050565b60006020828403121561159357600080fd5b610b5e82611565565b600080604083850312156115af57600080fd5b6115b883611565565b91506115c660208401611565565b90509250929050565b6000806000606084860312156115e457600080fd5b6115ed84611565565b92506115fb60208501611565565b9150604084013590509250925092565b6000806000806080858703121561162157600080fd5b61162a85611565565b935061163860208601611565565b925060408501359150606085013567ffffffffffffffff8082111561165c57600080fd5b818701915087601f83011261167057600080fd5b81358181111561168257611682611a06565b604051601f8201601f19908116603f011681019083821181831017156116aa576116aa611a06565b816040528281528a60208487010111156116c357600080fd5b82602086016020830137600060208483010152809550505050505092959194509250565b600080604083850312156116fa57600080fd5b61170383611565565b91506020830135801515811461171857600080fd5b809150509250929050565b6000806040838503121561173657600080fd5b61173f83611565565b946020939093013593505050565b60006020828403121561175f57600080fd5b8135610b5e81611a1c565b60006020828403121561177c57600080fd5b8151610b5e81611a1c565b60006020828403121561179957600080fd5b5035919050565b600081518084526117b881602086016020860161192e565b601f01601f19169290920160200192915050565b600083516117de81846020880161192e565b8351908301906117f281836020880161192e565b01949350505050565b6001600160a01b038581168252841660208201526040810183905260806060820181905260009061182e908301846117a0565b9695505050505050565b602081526000610b5e60208301846117a0565b60208082526032908201527f4552433732313a207472616e7366657220746f206e6f6e20455243373231526560408201527131b2b4bb32b91034b6b83632b6b2b73a32b960711b606082015260800190565b6020808252602e908201527f4552433732313a2063616c6c6572206973206e6f7420746f6b656e206f776e6560408201526d1c881b9bdc88185c1c1c9bdd995960921b606082015260800190565b600082198211156118fe576118fe6119c4565b500190565b600082611912576119126119da565b500490565b600082821015611929576119296119c4565b500390565b60005b83811015611949578181015183820152602001611931565b83811115610af85750506000910152565b600181811c9082168061196e57607f821691505b6020821081141561198f57634e487b7160e01b600052602260045260246000fd5b50919050565b60006000198214156119a9576119a96119c4565b5060010190565b6000826119bf576119bf6119da565b500690565b634e487b7160e01b600052601160045260246000fd5b634e487b7160e01b600052601260045260246000fd5b634e487b7160e01b600052603260045260246000fd5b634e487b7160e01b600052604160045260246000fd5b6001600160e01b0319811681146108d057600080fdfea2646970667358221220ba1e530e38c982e30587b7f675f3a8d4d7e61e7f3a1a83b1ff4dc962890ad73164736f6c63430008070033",
  "devdoc": {
    "kind": "dev",
    "methods": {
      "approve(address,uint256)": {
        "details": "See {IERC721-approve}."
      },
      "balanceOf(address)": {
        "details": "See {IERC721-balanceOf}."
      },
      "getApproved(uint256)": {
        "details": "See {IERC721-getApproved}."
      },
      "isApprovedForAll(address,address)": {
        "details": "See {IERC721-isApprovedForAll}."
      },
      "name()": {
        "details": "See {IERC721Metadata-name}."
      },
      "owner()": {
        "details": "Returns the address of the current owner."
      },
      "ownerOf(uint256)": {
        "details": "See {IERC721-ownerOf}."
      },
      "paused()": {
        "details": "Returns true if the contract is paused, and false otherwise."
      },
      "renounceOwnership()": {
        "details": "Leaves the contract without owner. It will not be possible to call `onlyOwner` functions anymore. Can only be called by the current owner. NOTE: Renouncing ownership will leave the contract without an owner, thereby removing any functionality that is only available to the owner."
      },
      "safeTransferFrom(address,address,uint256)": {
        "details": "See {IERC721-safeTransferFrom}."
      },
      "safeTransferFrom(address,address,uint256,bytes)": {
        "details": "See {IERC721-safeTransferFrom}."
      },
      "setApprovalForAll(address,bool)": {
        "details": "See {IERC721-setApprovalForAll}."
      },
      "supportsInterface(bytes4)": {
        "details": "See {IERC165-supportsInterface}."
      },
      "symbol()": {
        "details": "See {IERC721Metadata-symbol}."
      },
      "tokenURI(uint256)": {
        "details": "See {IERC721Metadata-tokenURI}."
      },
      "transferFrom(address,address,uint256)": {
        "details": "See {IERC721-transferFrom}."
      },
      "transferOwnership(address)": {
        "details": "Transfers ownership of the contract to a new account (`newOwner`). Can only be called by the current owner."
      }
    },
    "version": 1
  },
  "userdoc": {
    "kind": "user",
    "methods": {},
    "version": 1
  },
  "storageLayout": {
    "storage": [
      {
        "astId": 246,
        "contract": "solidity/contracts/Cryptobadies.sol:Cryptobadies",
        "label": "_name",
        "offset": 0,
        "slot": "0",
        "type": "t_string_storage"
      },
      {
        "astId": 248,
        "contract": "solidity/contracts/Cryptobadies.sol:Cryptobadies",
        "label": "_symbol",
        "offset": 0,
        "slot": "1",
        "type": "t_string_storage"
      },
      {
        "astId": 252,
        "contract": "solidity/contracts/Cryptobadies.sol:Cryptobadies",
        "label": "_owners",
        "offset": 0,
        "slot": "2",
        "type": "t_mapping(t_uint256,t_address)"
      },
      {
        "astId": 256,
        "contract": "solidity/contracts/Cryptobadies.sol:Cryptobadies",
        "label": "_balances",
        "offset": 0,
        "slot": "3",
        "type": "t_mapping(t_address,t_uint256)"
      },
      {
        "astId": 260,
        "contract": "solidity/contracts/Cryptobadies.sol:Cryptobadies",
        "label": "_tokenApprovals",
        "offset": 0,
        "slot": "4",
        "type": "t_mapping(t_uint256,t_address)"
      },
      {
        "astId": 266,
        "contract": "solidity/contracts/Cryptobadies.sol:Cryptobadies",
        "label": "_operatorApprovals",
        "offset": 0,
        "slot": "5",
        "type": "t_mapping(t_address,t_mapping(t_address,t_bool))"
      },
      {
        "astId": 130,
        "contract": "solidity/contracts/Cryptobadies.sol:Cryptobadies",
        "label": "_paused",
        "offset": 0,
        "slot": "6",
        "type": "t_bool"
      },
      {
        "astId": 7,
        "contract": "solidity/contracts/Cryptobadies.sol:Cryptobadies",
        "label": "_owner",
        "offset": 1,
        "slot": "6",
        "type": "t_address"
      },
      {
        "astId": 2024,
        "contract": "solidity/contracts/Cryptobadies.sol:Cryptobadies",
        "label": "baseUri",
        "offset": 0,
        "slot": "7",
        "type": "t_string_storage"
      },
      {
        "astId": 2026,
        "contract": "solidity/contracts/Cryptobadies.sol:Cryptobadies",
        "label": "totalSupply",
        "offset": 0,
        "slot": "8",
        "type": "t_uint256"
      },
      {
        "astId": 2028,
        "contract": "solidity/contracts/Cryptobadies.sol:Cryptobadies",
        "label": "nftPrice",
        "offset": 0,
        "slot": "9",
        "type": "t_uint256"
      },
      {
        "astId": 2030,
        "contract": "solidity/contracts/Cryptobadies.sol:Cryptobadies",
        "label": "_cryptoBadiesWallet",
        "offset": 0,
        "slot": "10",
        "type": "t_address_payable"
      },
      {
        "astId": 2033,
        "contract": "solidity/contracts/Cryptobadies.sol:Cryptobadies",
        "label": "_tokenIdCounter",
        "offset": 0,
        "slot": "11",
        "type": "t_struct(Counter)1571_storage"
      }
    ],
    "types": {
      "t_address": {
        "encoding": "inplace",
        "label": "address",
        "numberOfBytes": "20"
      },
      "t_address_payable": {
        "encoding": "inplace",
        "label": "address payable",
        "numberOfBytes": "20"
      },
      "t_bool": {
        "encoding": "inplace",
        "label": "bool",
        "numberOfBytes": "1"
      },
      "t_mapping(t_address,t_bool)": {
        "encoding": "mapping",
        "key": "t_address",
        "label": "mapping(address => bool)",
        "numberOfBytes": "32",
        "value": "t_bool"
      },
      "t_mapping(t_address,t_mapping(t_address,t_bool))": {
        "encoding": "mapping",
        "key": "t_address",
        "label": "mapping(address => mapping(address => bool))",
        "numberOfBytes": "32",
        "value": "t_mapping(t_address,t_bool)"
      },
      "t_mapping(t_address,t_uint256)": {
        "encoding": "mapping",
        "key": "t_address",
        "label": "mapping(address => uint256)",
        "numberOfBytes": "32",
        "value": "t_uint256"
      },
      "t_mapping(t_uint256,t_address)": {
        "encoding": "mapping",
        "key": "t_uint256",
        "label": "mapping(uint256 => address)",
        "numberOfBytes": "32",
        "value": "t_address"
      },
      "t_string_storage": {
        "encoding": "bytes",
        "label": "string",
        "numberOfBytes": "32"
      },
      "t_struct(Counter)1571_storage": {
        "encoding": "inplace",
        "label": "struct Counters.Counter",
        "members": [
          {
            "astId": 1570,
            "contract": "solidity/contracts/Cryptobadies.sol:Cryptobadies",
            "label": "_value",
            "offset": 0,
            "slot": "0",
            "type": "t_uint256"
          }
        ],
        "numberOfBytes": "32"
      },
      "t_uint256": {
        "encoding": "inplace",
        "label": "uint256",
        "numberOfBytes": "32"
      }
    }
  }
}