{
  "address": "0xbF5790d6890ec2402Bf3EB28ee77Ed9a41a2F07B",
  "abi": [
    {
      "inputs": [
        {
          "internalType": "string",
          "name": "name",
          "type": "string"
        },
        {
          "internalType": "string",
          "name": "symbol",
          "type": "string"
        },
        {
          "internalType": "string",
          "name": "_baseUri",
          "type": "string"
        },
        {
          "internalType": "uint24",
          "name": "_totalSupply",
          "type": "uint24"
        }
      ],
      "stateMutability": "nonpayable",
      "type": "constructor"
    },
    {
      "anonymous": false,
      "inputs": [
        {
          "indexed": true,
          "internalType": "address",
          "name": "owner",
          "type": "address"
        },
        {
          "indexed": true,
          "internalType": "address",
          "name": "approved",
          "type": "address"
        },
        {
          "indexed": true,
          "internalType": "uint256",
          "name": "tokenId",
          "type": "uint256"
        }
      ],
      "name": "Approval",
      "type": "event"
    },
    {
      "anonymous": false,
      "inputs": [
        {
          "indexed": true,
          "internalType": "address",
          "name": "owner",
          "type": "address"
        },
        {
          "indexed": true,
          "internalType": "address",
          "name": "operator",
          "type": "address"
        },
        {
          "indexed": false,
          "internalType": "bool",
          "name": "approved",
          "type": "bool"
        }
      ],
      "name": "ApprovalForAll",
      "type": "event"
    },
    {
      "anonymous": false,
      "inputs": [
        {
          "indexed": true,
          "internalType": "address",
          "name": "previousOwner",
          "type": "address"
        },
        {
          "indexed": true,
          "internalType": "address",
          "name": "newOwner",
          "type": "address"
        }
      ],
      "name": "OwnershipTransferred",
      "type": "event"
    },
    {
      "anonymous": false,
      "inputs": [
        {
          "indexed": false,
          "internalType": "address",
          "name": "account",
          "type": "address"
        }
      ],
      "name": "Paused",
      "type": "event"
    },
    {
      "anonymous": false,
      "inputs": [
        {
          "indexed": false,
          "internalType": "uint256",
          "name": "price",
          "type": "uint256"
        }
      ],
      "name": "PriceSet",
      "type": "event"
    },
    {
      "anonymous": false,
      "inputs": [
        {
          "indexed": true,
          "internalType": "address",
          "name": "from",
          "type": "address"
        },
        {
          "indexed": true,
          "internalType": "address",
          "name": "to",
          "type": "address"
        },
        {
          "indexed": true,
          "internalType": "uint256",
          "name": "tokenId",
          "type": "uint256"
        }
      ],
      "name": "Transfer",
      "type": "event"
    },
    {
      "anonymous": false,
      "inputs": [
        {
          "indexed": false,
          "internalType": "address",
          "name": "account",
          "type": "address"
        }
      ],
      "name": "Unpaused",
      "type": "event"
    },
    {
      "inputs": [
        {
          "internalType": "address",
          "name": "to",
          "type": "address"
        },
        {
          "internalType": "uint256",
          "name": "tokenId",
          "type": "uint256"
        }
      ],
      "name": "approve",
      "outputs": [],
      "stateMutability": "nonpayable",
      "type": "function"
    },
    {
      "inputs": [
        {
          "internalType": "address",
          "name": "owner",
          "type": "address"
        }
      ],
      "name": "balanceOf",
      "outputs": [
        {
          "internalType": "uint256",
          "name": "",
          "type": "uint256"
        }
      ],
      "stateMutability": "view",
      "type": "function"
    },
    {
      "inputs": [],
      "name": "baseUri",
      "outputs": [
        {
          "internalType": "string",
          "name": "",
          "type": "string"
        }
      ],
      "stateMutability": "view",
      "type": "function"
    },
    {
      "inputs": [
        {
          "internalType": "uint256",
          "name": "tokenId",
          "type": "uint256"
        }
      ],
      "name": "getApproved",
      "outputs": [
        {
          "internalType": "address",
          "name": "",
          "type": "address"
        }
      ],
      "stateMutability": "view",
      "type": "function"
    },
    {
      "inputs": [
        {
          "internalType": "address",
          "name": "owner",
          "type": "address"
        },
        {
          "internalType": "address",
          "name": "operator",
          "type": "address"
        }
      ],
      "name": "isApprovedForAll",
      "outputs": [
        {
          "internalType": "bool",
          "name": "",
          "type": "bool"
        }
      ],
      "stateMutability": "view",
      "type": "function"
    },
    {
      "inputs": [
        {
          "internalType": "address",
          "name": "_to",
          "type": "address"
        }
      ],
      "name": "mintTicket",
      "outputs": [],
      "stateMutability": "payable",
      "type": "function"
    },
    {
      "inputs": [],
      "name": "name",
      "outputs": [
        {
          "internalType": "string",
          "name": "",
          "type": "string"
        }
      ],
      "stateMutability": "view",
      "type": "function"
    },
    {
      "inputs": [],
      "name": "owner",
      "outputs": [
        {
          "internalType": "address",
          "name": "",
          "type": "address"
        }
      ],
      "stateMutability": "view",
      "type": "function"
    },
    {
      "inputs": [
        {
          "internalType": "uint256",
          "name": "tokenId",
          "type": "uint256"
        }
      ],
      "name": "ownerOf",
      "outputs": [
        {
          "internalType": "address",
          "name": "",
          "type": "address"
        }
      ],
      "stateMutability": "view",
      "type": "function"
    },
    {
      "inputs": [],
      "name": "pause",
      "outputs": [],
      "stateMutability": "nonpayable",
      "type": "function"
    },
    {
      "inputs": [],
      "name": "paused",
      "outputs": [
        {
          "internalType": "bool",
          "name": "",
          "type": "bool"
        }
      ],
      "stateMutability": "view",
      "type": "function"
    },
    {
      "inputs": [],
      "name": "renounceOwnership",
      "outputs": [],
      "stateMutability": "nonpayable",
      "type": "function"
    },
    {
      "inputs": [
        {
          "internalType": "address",
          "name": "from",
          "type": "address"
        },
        {
          "internalType": "address",
          "name": "to",
          "type": "address"
        },
        {
          "internalType": "uint256",
          "name": "tokenId",
          "type": "uint256"
        }
      ],
      "name": "safeTransferFrom",
      "outputs": [],
      "stateMutability": "nonpayable",
      "type": "function"
    },
    {
      "inputs": [
        {
          "internalType": "address",
          "name": "from",
          "type": "address"
        },
        {
          "internalType": "address",
          "name": "to",
          "type": "address"
        },
        {
          "internalType": "uint256",
          "name": "tokenId",
          "type": "uint256"
        },
        {
          "internalType": "bytes",
          "name": "data",
          "type": "bytes"
        }
      ],
      "name": "safeTransferFrom",
      "outputs": [],
      "stateMutability": "nonpayable",
      "type": "function"
    },
    {
      "inputs": [
        {
          "internalType": "address",
          "name": "operator",
          "type": "address"
        },
        {
          "internalType": "bool",
          "name": "approved",
          "type": "bool"
        }
      ],
      "name": "setApprovalForAll",
      "outputs": [],
      "stateMutability": "nonpayable",
      "type": "function"
    },
    {
      "inputs": [
        {
          "internalType": "uint256",
          "name": "_price",
          "type": "uint256"
        }
      ],
      "name": "setPrice",
      "outputs": [],
      "stateMutability": "nonpayable",
      "type": "function"
    },
    {
      "inputs": [
        {
          "internalType": "bytes4",
          "name": "interfaceId",
          "type": "bytes4"
        }
      ],
      "name": "supportsInterface",
      "outputs": [
        {
          "internalType": "bool",
          "name": "",
          "type": "bool"
        }
      ],
      "stateMutability": "view",
      "type": "function"
    },
    {
      "inputs": [],
      "name": "symbol",
      "outputs": [
        {
          "internalType": "string",
          "name": "",
          "type": "string"
        }
      ],
      "stateMutability": "view",
      "type": "function"
    },
    {
      "inputs": [],
      "name": "ticketPrice",
      "outputs": [
        {
          "internalType": "uint256",
          "name": "",
          "type": "uint256"
        }
      ],
      "stateMutability": "view",
      "type": "function"
    },
    {
      "inputs": [
        {
          "internalType": "uint256",
          "name": "tokenId",
          "type": "uint256"
        }
      ],
      "name": "tokenURI",
      "outputs": [
        {
          "internalType": "string",
          "name": "",
          "type": "string"
        }
      ],
      "stateMutability": "view",
      "type": "function"
    },
    {
      "inputs": [],
      "name": "totalSupply",
      "outputs": [
        {
          "internalType": "uint256",
          "name": "",
          "type": "uint256"
        }
      ],
      "stateMutability": "view",
      "type": "function"
    },
    {
      "inputs": [
        {
          "internalType": "address",
          "name": "from",
          "type": "address"
        },
        {
          "internalType": "address",
          "name": "to",
          "type": "address"
        },
        {
          "internalType": "uint256",
          "name": "tokenId",
          "type": "uint256"
        }
      ],
      "name": "transferFrom",
      "outputs": [],
      "stateMutability": "nonpayable",
      "type": "function"
    },
    {
      "inputs": [
        {
          "internalType": "address",
          "name": "newOwner",
          "type": "address"
        }
      ],
      "name": "transferOwnership",
      "outputs": [],
      "stateMutability": "nonpayable",
      "type": "function"
    },
    {
      "inputs": [],
      "name": "unpause",
      "outputs": [],
      "stateMutability": "nonpayable",
      "type": "function"
    },
    {
      "inputs": [],
      "name": "withdraw",
      "outputs": [],
      "stateMutability": "nonpayable",
      "type": "function"
    }
  ],
  "transactionHash": "0x1cf8c96addf63fbdc85b2b31024c435fca78dbfd1b660dd62f8eb7ccf3ee4eee",
  "args": [
    "Name",
    "TEST",
    "URI",
    46
  ],
  "numDeployments": 2,
  "solcInputHash": "c8f1cb82945964ce46acbd192c441d8c",
  "bytecode": "0x60806040523480156200001157600080fd5b5060405162001e8938038062001e89833981016040819052620000349162000260565b8351849084906200004d90600090602085019062000103565b5080516200006390600190602084019062000103565b50506006805460ff19169055506200007b33620000a9565b600160075562ffffff811660095581516200009e90600890602085019062000103565b505050505062000360565b600680546001600160a01b03838116610100818102610100600160a81b031985161790945560405193909204169182907f8be0079c531659141344cd1fd0a4f28419497f9722a3daafe3b4186f6b6457e090600090a35050565b82805462000111906200030d565b90600052602060002090601f01602090048101928262000135576000855562000180565b82601f106200015057805160ff191683800117855562000180565b8280016001018555821562000180579182015b828111156200018057825182559160200191906001019062000163565b506200018e92915062000192565b5090565b5b808211156200018e576000815560010162000193565b600082601f830112620001bb57600080fd5b81516001600160401b0380821115620001d857620001d86200034a565b604051601f8301601f19908116603f011681019082821181831017156200020357620002036200034a565b816040528381526020925086838588010111156200022057600080fd5b600091505b8382101562000244578582018301518183018401529082019062000225565b83821115620002565760008385830101525b9695505050505050565b600080600080608085870312156200027757600080fd5b84516001600160401b03808211156200028f57600080fd5b6200029d88838901620001a9565b95506020870151915080821115620002b457600080fd5b620002c288838901620001a9565b94506040870151915080821115620002d957600080fd5b50620002e887828801620001a9565b925050606085015162ffffff811681146200030257600080fd5b939692955090935050565b600181811c908216806200032257607f821691505b602082108114156200034457634e487b7160e01b600052602260045260246000fd5b50919050565b634e487b7160e01b600052604160045260246000fd5b611b1980620003706000396000f3fe6080604052600436106101665760003560e01c80636352211e116100d157806395d89b411161008a578063b88d4fde11610064578063b88d4fde146103e2578063c87b56dd14610402578063e985e9c514610422578063f2fde38b1461046b57600080fd5b806395d89b41146103985780639abc8320146103ad578063a22cb465146103c257600080fd5b80636352211e146102eb57806370a082311461030b578063715018a61461032b5780638456cb59146103405780638da5cb5b1461035557806391b7f5ed1461037857600080fd5b806318160ddd1161012357806318160ddd1461025357806323b872dd146102695780633ccfd60b146102895780633f4ba83a1461029e57806342842e0e146102b35780635c975abb146102d357600080fd5b806301ffc9a71461016b57806306fdde03146101a0578063081812fc146101c257806308e9bd26146101fa578063095ea7b31461020f5780631209b1f61461022f575b600080fd5b34801561017757600080fd5b5061018b6101863660046117fe565b61048b565b60405190151581526020015b60405180910390f35b3480156101ac57600080fd5b506101b56104dd565b60405161019791906118e9565b3480156101ce57600080fd5b506101e26101dd366004611838565b61056f565b6040516001600160a01b039091168152602001610197565b61020d610208366004611632565b610596565b005b34801561021b57600080fd5b5061020d61022a3660046117d4565b6107ad565b34801561023b57600080fd5b50610245600a5481565b604051908152602001610197565b34801561025f57600080fd5b5061024560095481565b34801561027557600080fd5b5061020d610284366004611680565b6108c3565b34801561029557600080fd5b5061020d6108f4565b3480156102aa57600080fd5b5061020d61092f565b3480156102bf57600080fd5b5061020d6102ce366004611680565b610941565b3480156102df57600080fd5b5060065460ff1661018b565b3480156102f757600080fd5b506101e2610306366004611838565b61095c565b34801561031757600080fd5b50610245610326366004611632565b6109bc565b34801561033757600080fd5b5061020d610a42565b34801561034c57600080fd5b5061020d610a54565b34801561036157600080fd5b5060065461010090046001600160a01b03166101e2565b34801561038457600080fd5b5061020d610393366004611838565b610a64565b3480156103a457600080fd5b506101b5610aa7565b3480156103b957600080fd5b506101b5610ab6565b3480156103ce57600080fd5b5061020d6103dd366004611798565b610b44565b3480156103ee57600080fd5b5061020d6103fd3660046116bc565b610b4f565b34801561040e57600080fd5b506101b561041d366004611838565b610b87565b34801561042e57600080fd5b5061018b61043d36600461164d565b6001600160a01b03918216600090815260056020908152604080832093909416825291909152205460ff1690565b34801561047757600080fd5b5061020d610486366004611632565b610bee565b60006001600160e01b031982166380ac58cd60e01b14806104bc57506001600160e01b03198216635b5e139f60e01b145b806104d757506301ffc9a760e01b6001600160e01b03198316145b92915050565b6060600080546104ec90611a0b565b80601f016020809104026020016040519081016040528092919081815260200182805461051890611a0b565b80156105655780601f1061053a57610100808354040283529160200191610565565b820191906000526020600020905b81548152906001019060200180831161054857829003601f168201915b5050505050905090565b600061057a82610c67565b506000908152600460205260409020546001600160a01b031690565b600260075414156105ee5760405162461bcd60e51b815260206004820152601f60248201527f5265656e7472616e637947756172643a207265656e7472616e742063616c6c0060448201526064015b60405180910390fd5b6002600755600954600b5411156106535760405162461bcd60e51b815260206004820152602360248201527f416c6c207469636b657473206f6620636f6e74726163742077657265206d696e6044820152621d195960ea1b60648201526084016105e5565b600a546106a25760405162461bcd60e51b815260206004820152601c60248201527f4120707269636520686173206e6f74206265656e20736574207965740000000060448201526064016105e5565b34600a5411156106f45760405162461bcd60e51b815260206004820152601a60248201527f45746865722076616c7565206973206e6f7420636f727265637400000000000060448201526064016105e5565b6106fd81610cc6565b600a543411156107a5576000600a543461071791906119c8565b604051909150600090339083908381818185875af1925050503d806000811461075c576040519150601f19603f3d011682016040523d82523d6000602084013e610761565b606091505b50509050806107a25760405162461bcd60e51b815260206004820152600d60248201526c1c99599d5b990819985a5b1959609a1b60448201526064016105e5565b50505b506001600755565b60006107b88261095c565b9050806001600160a01b0316836001600160a01b031614156108265760405162461bcd60e51b815260206004820152602160248201527f4552433732313a20617070726f76616c20746f2063757272656e74206f776e656044820152603960f91b60648201526084016105e5565b336001600160a01b03821614806108425750610842813361043d565b6108b45760405162461bcd60e51b815260206004820152603e60248201527f4552433732313a20617070726f76652063616c6c6572206973206e6f7420746f60448201527f6b656e206f776e6572206e6f7220617070726f76656420666f7220616c6c000060648201526084016105e5565b6108be8383610ceb565b505050565b6108cd3382610d59565b6108e95760405162461bcd60e51b81526004016105e59061194e565b6108be838383610dd8565b6108fc610f7f565b6040514790339082156108fc029083906000818181858888f1935050505015801561092b573d6000803e3d6000fd5b5050565b610937610f7f565b61093f610fdf565b565b6108be83838360405180602001604052806000815250610b4f565b6000818152600260205260408120546001600160a01b0316806104d75760405162461bcd60e51b8152602060048201526018602482015277115490cdcc8c4e881a5b9d985b1a59081d1bdad95b88125160421b60448201526064016105e5565b60006001600160a01b038216610a265760405162461bcd60e51b815260206004820152602960248201527f4552433732313a2061646472657373207a65726f206973206e6f7420612076616044820152683634b21037bbb732b960b91b60648201526084016105e5565b506001600160a01b031660009081526003602052604090205490565b610a4a610f7f565b61093f6000611031565b610a5c610f7f565b61093f61108b565b610a6c610f7f565b600a8190556040518181527f6bfd5e75539a9d2626425a2e2922675256b219fe546d63dad56011759b9a2f669060200160405180910390a150565b6060600180546104ec90611a0b565b60088054610ac390611a0b565b80601f0160208091040260200160405190810160405280929190818152602001828054610aef90611a0b565b8015610b3c5780601f10610b1157610100808354040283529160200191610b3c565b820191906000526020600020905b815481529060010190602001808311610b1f57829003601f168201915b505050505081565b61092b3383836110c8565b610b593383610d59565b610b755760405162461bcd60e51b81526004016105e59061194e565b610b8184848484611197565b50505050565b6060610b9282610c67565b6000610b9c6111ca565b90506000815111610bbc5760405180602001604052806000815250610be7565b80610bc6846111d9565b604051602001610bd792919061187d565b6040516020818303038152906040525b9392505050565b610bf6610f7f565b6001600160a01b038116610c5b5760405162461bcd60e51b815260206004820152602660248201527f4f776e61626c653a206e6577206f776e657220697320746865207a65726f206160448201526564647265737360d01b60648201526084016105e5565b610c6481611031565b50565b6000818152600260205260409020546001600160a01b0316610c645760405162461bcd60e51b8152602060048201526018602482015277115490cdcc8c4e881a5b9d985b1a59081d1bdad95b88125160421b60448201526064016105e5565b6000610cd1600b5490565b9050610ce1600b80546001019055565b61092b82826112d7565b600081815260046020526040902080546001600160a01b0319166001600160a01b0384169081179091558190610d208261095c565b6001600160a01b03167f8c5be1e5ebec7d5bd14f71427d1e84f3dd0314c0f7b2291e5b200ac8c7c3b92560405160405180910390a45050565b600080610d658361095c565b9050806001600160a01b0316846001600160a01b03161480610dac57506001600160a01b0380821660009081526005602090815260408083209388168352929052205460ff165b80610dd05750836001600160a01b0316610dc58461056f565b6001600160a01b0316145b949350505050565b826001600160a01b0316610deb8261095c565b6001600160a01b031614610e4f5760405162461bcd60e51b815260206004820152602560248201527f4552433732313a207472616e736665722066726f6d20696e636f72726563742060448201526437bbb732b960d91b60648201526084016105e5565b6001600160a01b038216610eb15760405162461bcd60e51b8152602060048201526024808201527f4552433732313a207472616e7366657220746f20746865207a65726f206164646044820152637265737360e01b60648201526084016105e5565b610ebc8383836112f1565b610ec7600082610ceb565b6001600160a01b0383166000908152600360205260408120805460019290610ef09084906119c8565b90915550506001600160a01b0382166000908152600360205260408120805460019290610f1e90849061199c565b909155505060008181526002602052604080822080546001600160a01b0319166001600160a01b0386811691821790925591518493918716917fddf252ad1be2c89b69c2b068fc378daa952ba7f163c4a11628f55a4df523b3ef91a4505050565b6006546001600160a01b0361010090910416331461093f5760405162461bcd60e51b815260206004820181905260248201527f4f776e61626c653a2063616c6c6572206973206e6f7420746865206f776e657260448201526064016105e5565b610fe76112f9565b6006805460ff191690557f5db9ee0a495bf2e6ff9c91a7834c1ba4fdd244a5e8aa4e537bd38aeae4b073aa335b6040516001600160a01b03909116815260200160405180910390a1565b600680546001600160a01b03838116610100818102610100600160a81b031985161790945560405193909204169182907f8be0079c531659141344cd1fd0a4f28419497f9722a3daafe3b4186f6b6457e090600090a35050565b611093611342565b6006805460ff191660011790557f62e78cea01bee320cd4e420270b5ea74000d11b0c9f74754ebdbfc544b05a2586110143390565b816001600160a01b0316836001600160a01b0316141561112a5760405162461bcd60e51b815260206004820152601960248201527f4552433732313a20617070726f766520746f2063616c6c65720000000000000060448201526064016105e5565b6001600160a01b03838116600081815260056020908152604080832094871680845294825291829020805460ff191686151590811790915591519182527f17307eab39ab6107e8899845ad3d59bd9653f200f220920489ca2b5937696c31910160405180910390a3505050565b6111a2848484610dd8565b6111ae84848484611388565b610b815760405162461bcd60e51b81526004016105e5906118fc565b6060600880546104ec90611a0b565b6060816111fd5750506040805180820190915260018152600360fc1b602082015290565b8160005b8115611227578061121181611a46565b91506112209050600a836119b4565b9150611201565b60008167ffffffffffffffff81111561124257611242611ab7565b6040519080825280601f01601f19166020018201604052801561126c576020820181803683370190505b5090505b8415610dd0576112816001836119c8565b915061128e600a86611a61565b61129990603061199c565b60f81b8183815181106112ae576112ae611aa1565b60200101906001600160f81b031916908160001a9053506112d0600a866119b4565b9450611270565b61092b828260405180602001604052806000815250611495565b6108be611342565b60065460ff1661093f5760405162461bcd60e51b815260206004820152601460248201527314185d5cd8589b194e881b9bdd081c185d5cd95960621b60448201526064016105e5565b60065460ff161561093f5760405162461bcd60e51b815260206004820152601060248201526f14185d5cd8589b194e881c185d5cd95960821b60448201526064016105e5565b60006001600160a01b0384163b1561148a57604051630a85bd0160e11b81526001600160a01b0385169063150b7a02906113cc9033908990889088906004016118ac565b602060405180830381600087803b1580156113e657600080fd5b505af1925050508015611416575060408051601f3d908101601f191682019092526114139181019061181b565b60015b611470573d808015611444576040519150601f19603f3d011682016040523d82523d6000602084013e611449565b606091505b5080516114685760405162461bcd60e51b81526004016105e5906118fc565b805181602001fd5b6001600160e01b031916630a85bd0160e11b149050610dd0565b506001949350505050565b61149f83836114c8565b6114ac6000848484611388565b6108be5760405162461bcd60e51b81526004016105e5906118fc565b6001600160a01b03821661151e5760405162461bcd60e51b815260206004820181905260248201527f4552433732313a206d696e7420746f20746865207a65726f206164647265737360448201526064016105e5565b6000818152600260205260409020546001600160a01b0316156115835760405162461bcd60e51b815260206004820152601c60248201527f4552433732313a20746f6b656e20616c7265616479206d696e7465640000000060448201526064016105e5565b61158f600083836112f1565b6001600160a01b03821660009081526003602052604081208054600192906115b890849061199c565b909155505060008181526002602052604080822080546001600160a01b0319166001600160a01b03861690811790915590518392907fddf252ad1be2c89b69c2b068fc378daa952ba7f163c4a11628f55a4df523b3ef908290a45050565b80356001600160a01b038116811461162d57600080fd5b919050565b60006020828403121561164457600080fd5b610be782611616565b6000806040838503121561166057600080fd5b61166983611616565b915061167760208401611616565b90509250929050565b60008060006060848603121561169557600080fd5b61169e84611616565b92506116ac60208501611616565b9150604084013590509250925092565b600080600080608085870312156116d257600080fd5b6116db85611616565b93506116e960208601611616565b925060408501359150606085013567ffffffffffffffff8082111561170d57600080fd5b818701915087601f83011261172157600080fd5b81358181111561173357611733611ab7565b604051601f8201601f19908116603f0116810190838211818310171561175b5761175b611ab7565b816040528281528a602084870101111561177457600080fd5b82602086016020830137600060208483010152809550505050505092959194509250565b600080604083850312156117ab57600080fd5b6117b483611616565b9150602083013580151581146117c957600080fd5b809150509250929050565b600080604083850312156117e757600080fd5b6117f083611616565b946020939093013593505050565b60006020828403121561181057600080fd5b8135610be781611acd565b60006020828403121561182d57600080fd5b8151610be781611acd565b60006020828403121561184a57600080fd5b5035919050565b600081518084526118698160208601602086016119df565b601f01601f19169290920160200192915050565b6000835161188f8184602088016119df565b8351908301906118a38183602088016119df565b01949350505050565b6001600160a01b03858116825284166020820152604081018390526080606082018190526000906118df90830184611851565b9695505050505050565b602081526000610be76020830184611851565b60208082526032908201527f4552433732313a207472616e7366657220746f206e6f6e20455243373231526560408201527131b2b4bb32b91034b6b83632b6b2b73a32b960711b606082015260800190565b6020808252602e908201527f4552433732313a2063616c6c6572206973206e6f7420746f6b656e206f776e6560408201526d1c881b9bdc88185c1c1c9bdd995960921b606082015260800190565b600082198211156119af576119af611a75565b500190565b6000826119c3576119c3611a8b565b500490565b6000828210156119da576119da611a75565b500390565b60005b838110156119fa5781810151838201526020016119e2565b83811115610b815750506000910152565b600181811c90821680611a1f57607f821691505b60208210811415611a4057634e487b7160e01b600052602260045260246000fd5b50919050565b6000600019821415611a5a57611a5a611a75565b5060010190565b600082611a7057611a70611a8b565b500690565b634e487b7160e01b600052601160045260246000fd5b634e487b7160e01b600052601260045260246000fd5b634e487b7160e01b600052603260045260246000fd5b634e487b7160e01b600052604160045260246000fd5b6001600160e01b031981168114610c6457600080fdfea2646970667358221220b8d3d602ffcbf02926965dbc3ed7bc63a4b7094efb73232432bc8d8de944229264736f6c63430008070033",
  "devdoc": {
    "kind": "dev",
    "methods": {
      "approve(address,uint256)": {
        "details": "See {IERC721-approve}."
      },
      "balanceOf(address)": {
        "details": "See {IERC721-balanceOf}."
      },
      "getApproved(uint256)": {
        "details": "See {IERC721-getApproved}."
      },
      "isApprovedForAll(address,address)": {
        "details": "See {IERC721-isApprovedForAll}."
      },
      "name()": {
        "details": "See {IERC721Metadata-name}."
      },
      "owner()": {
        "details": "Returns the address of the current owner."
      },
      "ownerOf(uint256)": {
        "details": "See {IERC721-ownerOf}."
      },
      "paused()": {
        "details": "Returns true if the contract is paused, and false otherwise."
      },
      "renounceOwnership()": {
        "details": "Leaves the contract without owner. It will not be possible to call `onlyOwner` functions anymore. Can only be called by the current owner. NOTE: Renouncing ownership will leave the contract without an owner, thereby removing any functionality that is only available to the owner."
      },
      "safeTransferFrom(address,address,uint256)": {
        "details": "See {IERC721-safeTransferFrom}."
      },
      "safeTransferFrom(address,address,uint256,bytes)": {
        "details": "See {IERC721-safeTransferFrom}."
      },
      "setApprovalForAll(address,bool)": {
        "details": "See {IERC721-setApprovalForAll}."
      },
      "supportsInterface(bytes4)": {
        "details": "See {IERC165-supportsInterface}."
      },
      "symbol()": {
        "details": "See {IERC721Metadata-symbol}."
      },
      "tokenURI(uint256)": {
        "details": "See {IERC721Metadata-tokenURI}."
      },
      "transferFrom(address,address,uint256)": {
        "details": "See {IERC721-transferFrom}."
      },
      "transferOwnership(address)": {
        "details": "Transfers ownership of the contract to a new account (`newOwner`). Can only be called by the current owner."
      }
    },
    "version": 1
  },
  "userdoc": {
    "kind": "user",
    "methods": {},
    "notice": "TODO CHANGE CONTRACT FOR RESELL MARKETPLACE TODO CHANGE CONTRACT FOR TICKET ERC1155 allows to create more complex tickets",
    "version": 1
  },
  "storageLayout": {
    "storage": [
      {
        "astId": 975,
        "contract": "solidity/contracts/Ticket.sol:Ticket",
        "label": "_name",
        "offset": 0,
        "slot": "0",
        "type": "t_string_storage"
      },
      {
        "astId": 977,
        "contract": "solidity/contracts/Ticket.sol:Ticket",
        "label": "_symbol",
        "offset": 0,
        "slot": "1",
        "type": "t_string_storage"
      },
      {
        "astId": 981,
        "contract": "solidity/contracts/Ticket.sol:Ticket",
        "label": "_owners",
        "offset": 0,
        "slot": "2",
        "type": "t_mapping(t_uint256,t_address)"
      },
      {
        "astId": 985,
        "contract": "solidity/contracts/Ticket.sol:Ticket",
        "label": "_balances",
        "offset": 0,
        "slot": "3",
        "type": "t_mapping(t_address,t_uint256)"
      },
      {
        "astId": 989,
        "contract": "solidity/contracts/Ticket.sol:Ticket",
        "label": "_tokenApprovals",
        "offset": 0,
        "slot": "4",
        "type": "t_mapping(t_uint256,t_address)"
      },
      {
        "astId": 995,
        "contract": "solidity/contracts/Ticket.sol:Ticket",
        "label": "_operatorApprovals",
        "offset": 0,
        "slot": "5",
        "type": "t_mapping(t_address,t_mapping(t_address,t_bool))"
      },
      {
        "astId": 130,
        "contract": "solidity/contracts/Ticket.sol:Ticket",
        "label": "_paused",
        "offset": 0,
        "slot": "6",
        "type": "t_bool"
      },
      {
        "astId": 7,
        "contract": "solidity/contracts/Ticket.sol:Ticket",
        "label": "_owner",
        "offset": 1,
        "slot": "6",
        "type": "t_address"
      },
      {
        "astId": 231,
        "contract": "solidity/contracts/Ticket.sol:Ticket",
        "label": "_status",
        "offset": 0,
        "slot": "7",
        "type": "t_uint256"
      },
      {
        "astId": 2695,
        "contract": "solidity/contracts/Ticket.sol:Ticket",
        "label": "baseUri",
        "offset": 0,
        "slot": "8",
        "type": "t_string_storage"
      },
      {
        "astId": 2697,
        "contract": "solidity/contracts/Ticket.sol:Ticket",
        "label": "totalSupply",
        "offset": 0,
        "slot": "9",
        "type": "t_uint256"
      },
      {
        "astId": 2699,
        "contract": "solidity/contracts/Ticket.sol:Ticket",
        "label": "ticketPrice",
        "offset": 0,
        "slot": "10",
        "type": "t_uint256"
      },
      {
        "astId": 2702,
        "contract": "solidity/contracts/Ticket.sol:Ticket",
        "label": "_tokenIdCounter",
        "offset": 0,
        "slot": "11",
        "type": "t_struct(Counter)2300_storage"
      }
    ],
    "types": {
      "t_address": {
        "encoding": "inplace",
        "label": "address",
        "numberOfBytes": "20"
      },
      "t_bool": {
        "encoding": "inplace",
        "label": "bool",
        "numberOfBytes": "1"
      },
      "t_mapping(t_address,t_bool)": {
        "encoding": "mapping",
        "key": "t_address",
        "label": "mapping(address => bool)",
        "numberOfBytes": "32",
        "value": "t_bool"
      },
      "t_mapping(t_address,t_mapping(t_address,t_bool))": {
        "encoding": "mapping",
        "key": "t_address",
        "label": "mapping(address => mapping(address => bool))",
        "numberOfBytes": "32",
        "value": "t_mapping(t_address,t_bool)"
      },
      "t_mapping(t_address,t_uint256)": {
        "encoding": "mapping",
        "key": "t_address",
        "label": "mapping(address => uint256)",
        "numberOfBytes": "32",
        "value": "t_uint256"
      },
      "t_mapping(t_uint256,t_address)": {
        "encoding": "mapping",
        "key": "t_uint256",
        "label": "mapping(uint256 => address)",
        "numberOfBytes": "32",
        "value": "t_address"
      },
      "t_string_storage": {
        "encoding": "bytes",
        "label": "string",
        "numberOfBytes": "32"
      },
      "t_struct(Counter)2300_storage": {
        "encoding": "inplace",
        "label": "struct Counters.Counter",
        "members": [
          {
            "astId": 2299,
            "contract": "solidity/contracts/Ticket.sol:Ticket",
            "label": "_value",
            "offset": 0,
            "slot": "0",
            "type": "t_uint256"
          }
        ],
        "numberOfBytes": "32"
      },
      "t_uint256": {
        "encoding": "inplace",
        "label": "uint256",
        "numberOfBytes": "32"
      }
    }
  }
}